{
  "contractName": "Apartment",
  "abi": [
    {
      "inputs": [],
      "payable": false,
      "stateMutability": "nonpayable",
      "type": "constructor"
    },
    {
      "constant": false,
      "inputs": [
        {
          "name": "id",
          "type": "uint256"
        }
      ],
      "name": "payRent",
      "outputs": [],
      "payable": true,
      "stateMutability": "payable",
      "type": "function"
    },
    {
      "constant": false,
      "inputs": [
        {
          "name": "id",
          "type": "uint256"
        }
      ],
      "name": "payDeposit",
      "outputs": [],
      "payable": true,
      "stateMutability": "payable",
      "type": "function"
    }
  ],
  "bytecode": "0x608060405234801561001057600080fd5b50610295806100206000396000f30060806040526004361061004c576000357c0100000000000000000000000000000000000000000000000000000000900463ffffffff16806328cd3f1814610051578063d9e8843f14610071575b600080fd5b61006f60048036038101908080359060200190929190505050610091565b005b61008f6004803603810190808035906020019092919050505061017d565b005b600080600091505b6004805490508210156100fb57826004838154811015156100b657fe5b90600052602060002090600502016000015414156100ee576004828154811015156100dd57fe5b906000526020600020906005020190505b8180600101925050610099565b34816003015414151561010d57600080fd5b8060010160009054906101000a900473ffffffffffffffffffffffffffffffffffffffff1673ffffffffffffffffffffffffffffffffffffffff166108fc349081150290604051600060405180830381858888f19350505050158015610177573d6000803e3d6000fd5b50505050565b600080600091505b6004805490508210156101e757826004838154811015156101a257fe5b90600052602060002090600502016000015414156101da576004828154811015156101c957fe5b906000526020600020906005020190505b8180600101925050610185565b3481600401541415156101f957600080fd5b8060010160009054906101000a900473ffffffffffffffffffffffffffffffffffffffff1673ffffffffffffffffffffffffffffffffffffffff166108fc349081150290604051600060405180830381858888f19350505050158015610263573d6000803e3d6000fd5b505050505600a165627a7a723058201c7c5363a43e9b791d0c4098da6e94abe946035f718935abad2977e9911579930029",
  "source": "pragma solidity ^0.4.23;\r\n\r\ncontract Apartment {\r\n    mapping(uint => uint) apartmentRent;\r\n    mapping(uint => uint) apartmentDeposit;\r\n    mapping(address => ApartmentDetail[]) ownedApartments;\r\n    mapping(address => ApartmentDetail[]) rentedApartments;\r\n\r\n    ApartmentDetail[] apartmentlist;\r\n\r\n    struct ApartmentDetail {\r\n        uint id;\r\n        address owner;\r\n        address tenant;\r\n        uint deposit;\r\n        uint rent;\r\n    }\r\n\r\n    constructor() public {\r\n    }\r\n\r\n\r\n    function payRent(uint id) public payable {\r\n        for(uint i = 0; i < apartmentlist.length; i++) {\r\n            if (apartmentlist[i].id == id) {\r\n                ApartmentDetail storage apartment = apartmentlist[i];\r\n            }\r\n        }\r\n        require(apartment.rent == msg.value);\r\n        apartment.owner.transfer(msg.value);\r\n    }\r\n\r\n    function payDeposit(uint id) public payable {\r\n        for(uint i = 0; i < apartmentlist.length; i++) {\r\n            if (apartmentlist[i].id == id) {\r\n                ApartmentDetail storage apartment = apartmentlist[i];\r\n            }\r\n        }\r\n        require(apartment.deposit == msg.value);\r\n        apartment.owner.transfer(msg.value);\r\n    }\r\n}",
  "sourcePath": "C:\\Users\\david.munkacsi\\smart-renting\\ethereum\\contracts\\Apartment.sol",
  "compiler": {
    "name": "solc",
    "version": "0.4.24+commit.e67f0147.Emscripten.clang"
  },
  "schemaVersion": "2.0.1",
  "updatedAt": "2018-06-29T08:51:19.992Z"
}