{
  "contractName": "Apartment",
  "abi": [
    {
      "inputs": [],
      "payable": false,
      "stateMutability": "nonpayable",
      "type": "constructor"
    },
    {
      "constant": false,
      "inputs": [
        {
          "name": "_transactionMessage",
          "type": "string"
        }
      ],
      "name": "createApartmentTransaction",
      "outputs": [
        {
          "name": "",
          "type": "bytes32"
        }
      ],
      "payable": false,
      "stateMutability": "nonpayable",
      "type": "function"
    },
    {
      "constant": false,
      "inputs": [
        {
          "name": "_id",
          "type": "string"
        },
        {
          "name": "_rent",
          "type": "uint256"
        }
      ],
      "name": "createRent",
      "outputs": [],
      "payable": false,
      "stateMutability": "nonpayable",
      "type": "function"
    },
    {
      "constant": false,
      "inputs": [
        {
          "name": "_id",
          "type": "string"
        },
        {
          "name": "_deposit",
          "type": "uint256"
        }
      ],
      "name": "createdDeposit",
      "outputs": [],
      "payable": false,
      "stateMutability": "nonpayable",
      "type": "function"
    },
    {
      "constant": true,
      "inputs": [
        {
          "name": "transactionId",
          "type": "bytes32"
        }
      ],
      "name": "getTransaction",
      "outputs": [
        {
          "name": "",
          "type": "string"
        }
      ],
      "payable": false,
      "stateMutability": "view",
      "type": "function"
    },
    {
      "constant": false,
      "inputs": [
        {
          "name": "_to",
          "type": "address"
        },
        {
          "name": "_id",
          "type": "string"
        }
      ],
      "name": "payRent",
      "outputs": [],
      "payable": true,
      "stateMutability": "payable",
      "type": "function"
    },
    {
      "constant": false,
      "inputs": [
        {
          "name": "_to",
          "type": "address"
        },
        {
          "name": "_id",
          "type": "string"
        }
      ],
      "name": "payDeposit",
      "outputs": [],
      "payable": true,
      "stateMutability": "payable",
      "type": "function"
    }
  ],
  "bytecode": "0x608060405234801561001057600080fd5b50610846806100206000396000f300608060405260043610610078576000357c0100000000000000000000000000000000000000000000000000000000900463ffffffff16806328f3572f1461007d5780632badd4b7146100f05780633a753915146101635780634aae13ca146101df5780638736125714610289578063a6110b9814610305575b600080fd5b34801561008957600080fd5b506100ee600480360381019080803590602001908201803590602001908080601f01602080910402602001604051908101604052809392919081815260200183838082843782019150505050505091929192908035906020019092919050505061038a565b005b3480156100fc57600080fd5b50610161600480360381019080803590602001908201803590602001908080601f0160208091040260200160405190810160405280939291908181526020018383808284378201915050505050509192919290803590602001909291905050506103fe565b005b6101dd600480360381019080803573ffffffffffffffffffffffffffffffffffffffff169060200190929190803590602001908201803590602001908080601f0160208091040260200160405190810160405280939291908181526020018383808284378201915050505050509192919290505050610472565b005b3480156101eb57600080fd5b5061020e6004803603810190808035600019169060200190929190505050610536565b6040518080602001828103825283818151815260200191508051906020019080838360005b8381101561024e578082015181840152602081019050610233565b50505050905090810190601f16801561027b5780820380516001836020036101000a031916815260200191505b509250505060405180910390f35b610303600480360381019080803573ffffffffffffffffffffffffffffffffffffffff169060200190929190803590602001908201803590602001908080601f01602080910402602001604051908101604052809392919081815260200183838082843782019150505050505091929192905050506105f2565b005b34801561031157600080fd5b5061036c600480360381019080803590602001908201803590602001908080601f01602080910402602001604051908101604052809392919081815260200183838082843782019150505050505091929192905050506106b6565b60405180826000191660001916815260200191505060405180910390f35b806001836040518082805190602001908083835b6020831015156103c3578051825260208201915060208101905060208303925061039e565b6001836020036101000a0380198251168184511680821785525050505050509050019150509081526020016040518091039020819055505050565b806002836040518082805190602001908083835b6020831015156104375780518252602082019150602081019050602083039250610412565b6001836020036101000a0380198251168184511680821785525050505050509050019150509081526020016040518091039020819055505050565b6002816040518082805190602001908083835b6020831015156104aa5780518252602082019150602081019050602083039250610485565b6001836020036101000a038019825116818451168082178552505050505050905001915050908152602001604051809103902054341415156104eb57600080fd5b8173ffffffffffffffffffffffffffffffffffffffff166108fc349081150290604051600060405180830381858888f19350505050158015610531573d6000803e3d6000fd5b505050565b606060008083600019166000191681526020019081526020016000208054600181600116156101000203166002900480601f0160208091040260200160405190810160405280929190818152602001828054600181600116156101000203166002900480156105e65780601f106105bb576101008083540402835291602001916105e6565b820191906000526020600020905b8154815290600101906020018083116105c957829003601f168201915b50505050509050919050565b6001816040518082805190602001908083835b60208310151561062a5780518252602082019150602081019050602083039250610605565b6001836020036101000a0380198251168184511680821785525050505050509050019150509081526020016040518091039020543414151561066b57600080fd5b8173ffffffffffffffffffffffffffffffffffffffff166108fc349081150290604051600060405180830381858888f193505050501580156106b1573d6000803e3d6000fd5b505050565b60008042604051602001808281526020019150506040516020818303038152906040526040518082805190602001908083835b60208310151561070e57805182526020820191506020810190506020830392506106e9565b6001836020036101000a03801982511681845116808217855250505050505090500191505060405180910390209050826000808360001916600019168152602001908152602001600020908051906020019061076b929190610775565b5080915050919050565b828054600181600116156101000203166002900490600052602060002090601f016020900481019282601f106107b657805160ff19168380011785556107e4565b828001600101855582156107e4579182015b828111156107e35782518255916020019190600101906107c8565b5b5090506107f191906107f5565b5090565b61081791905b808211156108135760008160009055506001016107fb565b5090565b905600a165627a7a72305820745bc6608b936986a91821c9e82ba06b96f12c4a85caff4fb1726be1cd6c34ba0029",
  "source": "pragma solidity ^0.4.23;\r\n\r\ncontract Apartment {\r\n    // Note: the current ABI version does not support the receiving and sending of objects (structs),\r\n    // so for the proof of concept part we just store transaction string.\r\n    mapping(bytes32 => string) apartmentTransactions;\r\n    mapping(string => uint) requiredDeposits;\r\n    mapping(string => uint) requiredRents;\r\n\r\n    constructor() public {\r\n    }\r\n\r\n    function createApartmentTransaction(string _transactionMessage) public returns(bytes32) {\r\n        bytes32 hashedTimestamp = keccak256(abi.encodePacked(block.timestamp));\r\n        apartmentTransactions[hashedTimestamp] = _transactionMessage;\r\n        return hashedTimestamp;\r\n    }\r\n\r\n    function createRent(string _id, uint _rent) public {\r\n        requiredRents[_id] = _rent;\r\n    }\r\n\r\n    function createdDeposit(string _id, uint _deposit) public {\r\n        requiredDeposits[_id] = _deposit;\r\n    }\r\n\r\n    function getTransaction(bytes32 transactionId) public view returns(string) {\r\n        return apartmentTransactions[transactionId];\r\n    }\r\n\r\n    function payRent(address _to, string _id) public payable {\r\n        require(msg.value == requiredRents[_id]);\r\n        _to.transfer(msg.value);\r\n    }\r\n\r\n    function payDeposit(address _to, string _id) public payable {\r\n        require(msg.value == requiredDeposits[_id]);\r\n        _to.transfer(msg.value);\r\n    }\r\n}",
  "sourcePath": "C:\\Users\\david.munkacsi\\smart-renting\\ethereum\\contracts\\Apartment.sol",
  "compiler": {
    "name": "solc",
    "version": "0.4.24+commit.e67f0147.Emscripten.clang"
  },
  "schemaVersion": "2.0.0",
  "updatedAt": "2018-07-01T13:43:39.756Z"
}