{
  "contractName": "Apartment",
  "abi": [
    {
      "inputs": [],
      "payable": false,
      "stateMutability": "nonpayable",
      "type": "constructor"
    },
    {
      "constant": false,
      "inputs": [],
      "name": "getId",
      "outputs": [
        {
          "name": "",
          "type": "uint32"
        }
      ],
      "payable": false,
      "stateMutability": "nonpayable",
      "type": "function"
    },
    {
      "constant": false,
      "inputs": [
        {
          "name": "_postCode",
          "type": "uint32"
        },
        {
          "name": "_city",
          "type": "string"
        },
        {
          "name": "_street",
          "type": "string"
        },
        {
          "name": "_houseNumber",
          "type": "uint32"
        },
        {
          "name": "_floor",
          "type": "uint32"
        },
        {
          "name": "_description",
          "type": "string"
        },
        {
          "name": "_rent",
          "type": "uint32"
        },
        {
          "name": "_deposit",
          "type": "uint32"
        },
        {
          "name": "_transactionMessage",
          "type": "string"
        }
      ],
      "name": "createApartment",
      "outputs": [],
      "payable": false,
      "stateMutability": "nonpayable",
      "type": "function"
    },
    {
      "constant": true,
      "inputs": [
        {
          "name": "apartmentId",
          "type": "uint32"
        }
      ],
      "name": "getApartmentById",
      "outputs": [
        {
          "name": "_postCode",
          "type": "uint32"
        },
        {
          "name": "_city",
          "type": "string"
        },
        {
          "name": "_street",
          "type": "string"
        },
        {
          "name": "_houseNumber",
          "type": "uint32"
        },
        {
          "name": "_floor",
          "type": "uint32"
        },
        {
          "name": "_description",
          "type": "string"
        },
        {
          "name": "_rent",
          "type": "uint32"
        },
        {
          "name": "_deposit",
          "type": "uint32"
        },
        {
          "name": "_isRented",
          "type": "bool"
        }
      ],
      "payable": false,
      "stateMutability": "view",
      "type": "function"
    },
    {
      "constant": true,
      "inputs": [],
      "name": "getApartments",
      "outputs": [
        {
          "name": "",
          "type": "uint32[]"
        }
      ],
      "payable": false,
      "stateMutability": "view",
      "type": "function"
    }
  ],
  "bytecode": "0x608060405260008060006101000a81548163ffffffff021916908363ffffffff16021790555034801561003157600080fd5b50610e8c806100416000396000f300608060405260043610610062576000357c0100000000000000000000000000000000000000000000000000000000900463ffffffff168063098b72b5146100675780635d1ca63114610255578063b1c980991461028c578063c05db1fa146102f8575b600080fd5b34801561007357600080fd5b50610098600480360381019080803563ffffffff169060200190929190505050610483565b604051808a63ffffffff1663ffffffff16815260200180602001806020018963ffffffff1663ffffffff1681526020018863ffffffff1663ffffffff168152602001806020018763ffffffff1663ffffffff1681526020018663ffffffff1663ffffffff1681526020018515151515815260200184810384528c818151815260200191508051906020019080838360005b83811015610144578082015181840152602081019050610129565b50505050905090810190601f1680156101715780820380516001836020036101000a031916815260200191505b5084810383528b818151815260200191508051906020019080838360005b838110156101aa57808201518184015260208101905061018f565b50505050905090810190601f1680156101d75780820380516001836020036101000a031916815260200191505b50848103825288818151815260200191508051906020019080838360005b838110156102105780820151818401526020810190506101f5565b50505050905090810190601f16801561023d5780820380516001836020036101000a031916815260200191505b509c5050505050505050505050505060405180910390f35b34801561026157600080fd5b5061026a61072f565b604051808263ffffffff1663ffffffff16815260200191505060405180910390f35b34801561029857600080fd5b506102a161076f565b6040518080602001828103825283818151815260200191508051906020019060200280838360005b838110156102e45780820151818401526020810190506102c9565b505050509050019250505060405180910390f35b34801561030457600080fd5b50610481600480360381019080803563ffffffff169060200190929190803590602001908201803590602001908080601f0160208091040260200160405190810160405280939291908181526020018383808284378201915050505050509192919290803590602001908201803590602001908080601f0160208091040260200160405190810160405280939291908181526020018383808284378201915050505050509192919290803563ffffffff169060200190929190803563ffffffff169060200190929190803590602001908201803590602001908080601f0160208091040260200160405190810160405280939291908181526020018383808284378201915050505050509192919290803563ffffffff169060200190929190803563ffffffff169060200190929190803590602001908201803590602001908080601f0160208091040260200160405190810160405280939291908181526020018383808284378201915050505050509192919290505050610830565b005b60006060806000806060600080600080600260008c63ffffffff1663ffffffff16815260200190815260200160002090508060010160149054906101000a900463ffffffff1681600201826003018360040160009054906101000a900463ffffffff168460040160049054906101000a900463ffffffff16856005018660060160009054906101000a900463ffffffff168760060160049054906101000a900463ffffffff168860060160089054906101000a900460ff16878054600181600116156101000203166002900480601f0160208091040260200160405190810160405280929190818152602001828054600181600116156101000203166002900480156105d05780601f106105a5576101008083540402835291602001916105d0565b820191906000526020600020905b8154815290600101906020018083116105b357829003601f168201915b50505050509750868054600181600116156101000203166002900480601f01602080910402602001604051908101604052809291908181526020018280546001816001161561010002031660029004801561066c5780601f106106415761010080835404028352916020019161066c565b820191906000526020600020905b81548152906001019060200180831161064f57829003601f168201915b50505050509650838054600181600116156101000203166002900480601f0160208091040260200160405190810160405280929190818152602001828054600181600116156101000203166002900480156107085780601f106106dd57610100808354040283529160200191610708565b820191906000526020600020905b8154815290600101906020018083116106eb57829003601f168201915b50505050509350995099509950995099509950995099509950509193959799909294969850565b600080600081819054906101000a900463ffffffff168092919060010191906101000a81548163ffffffff021916908363ffffffff160217905550905090565b6060600160003373ffffffffffffffffffffffffffffffffffffffff1673ffffffffffffffffffffffffffffffffffffffff16815260200190815260200160002080548060200260200160405190810160405280929190818152602001828054801561082657602002820191906000526020600020906000905b82829054906101000a900463ffffffff1663ffffffff16815260200190600401906020826003010492830192600103820291508084116107e95790505b5050505050905090565b60008061083b610cd9565b610843610d8d565b61084b61072f565b935061085561072f565b9250610180604051908101604052808563ffffffff1681526020013373ffffffffffffffffffffffffffffffffffffffff168152602001600073ffffffffffffffffffffffffffffffffffffffff1681526020018e63ffffffff1681526020018d81526020018c81526020018b63ffffffff1681526020018a63ffffffff1681526020018981526020018863ffffffff1681526020018763ffffffff1681526020016000151581525091506060604051908101604052808463ffffffff1681526020018563ffffffff168152602001868152509050600160003373ffffffffffffffffffffffffffffffffffffffff1673ffffffffffffffffffffffffffffffffffffffff16815260200190815260200160002084908060018154018082558091505090600182039060005260206000209060089182820401919006600402909192909190916101000a81548163ffffffff021916908363ffffffff16021790555050600360008563ffffffff1663ffffffff16815260200190815260200160002083908060018154018082558091505090600182039060005260206000209060089182820401919006600402909192909190916101000a81548163ffffffff021916908363ffffffff1602179055505081600260008663ffffffff1663ffffffff16815260200190815260200160002060008201518160000160006101000a81548163ffffffff021916908363ffffffff16021790555060208201518160000160046101000a81548173ffffffffffffffffffffffffffffffffffffffff021916908373ffffffffffffffffffffffffffffffffffffffff16021790555060408201518160010160006101000a81548173ffffffffffffffffffffffffffffffffffffffff021916908373ffffffffffffffffffffffffffffffffffffffff16021790555060608201518160010160146101000a81548163ffffffff021916908363ffffffff1602179055506080820151816002019080519060200190610b3e929190610dbb565b5060a0820151816003019080519060200190610b5b929190610dbb565b5060c08201518160040160006101000a81548163ffffffff021916908363ffffffff16021790555060e08201518160040160046101000a81548163ffffffff021916908363ffffffff160217905550610100820151816005019080519060200190610bc7929190610dbb565b506101208201518160060160006101000a81548163ffffffff021916908363ffffffff1602179055506101408201518160060160046101000a81548163ffffffff021916908363ffffffff1602179055506101608201518160060160086101000a81548160ff02191690831515021790555090505080600460008563ffffffff1663ffffffff16815260200190815260200160002060008201518160000160006101000a81548163ffffffff021916908363ffffffff16021790555060208201518160000160046101000a81548163ffffffff021916908363ffffffff1602179055506040820151816001019080519060200190610cc6929190610dbb565b5090505050505050505050505050505050565b61018060405190810160405280600063ffffffff168152602001600073ffffffffffffffffffffffffffffffffffffffff168152602001600073ffffffffffffffffffffffffffffffffffffffff168152602001600063ffffffff1681526020016060815260200160608152602001600063ffffffff168152602001600063ffffffff16815260200160608152602001600063ffffffff168152602001600063ffffffff1681526020016000151581525090565b606060405190810160405280600063ffffffff168152602001600063ffffffff168152602001606081525090565b828054600181600116156101000203166002900490600052602060002090601f016020900481019282601f10610dfc57805160ff1916838001178555610e2a565b82800160010185558215610e2a579182015b82811115610e29578251825591602001919060010190610e0e565b5b509050610e379190610e3b565b5090565b610e5d91905b80821115610e59576000816000905550600101610e41565b5090565b905600a165627a7a72305820589c00b820957f688efa9968f74acc147194dfc9f0cdf7e1f55ae924eb60433f0029",
  "source": "pragma solidity ^0.4.23;\r\n\r\ncontract Apartment {\r\n    uint32 private counter = 0;\r\n    mapping(address => uint32[]) apartments;\r\n    mapping(uint32 => ApartmentDetails) apartmentDetails;\r\n    mapping(uint32 => uint32[]) apartmentTransactionMappings;\r\n    mapping(uint32 => ApartmentTransaction) apartmentTransactions;\r\n\r\n    constructor() public {\r\n    }\r\n\r\n    struct ApartmentTransaction {\r\n        uint32 id;\r\n        uint32 apartmentId;\r\n        string message;\r\n    }\r\n\r\n    struct ApartmentDetails {\r\n        uint32 id;\r\n        address owner;\r\n        address tenant;\r\n        uint32 postCode;\r\n        string city;\r\n        string street;\r\n        uint32 houseNumber;\r\n        uint32 floor;\r\n        string description;\r\n        uint32 rent;\r\n        uint32 deposit;\r\n        bool isRented;\r\n    }\r\n\r\n    function getId() public returns(uint32) {\r\n        return counter++;\r\n    }\r\n\r\n    function createApartment(uint32 _postCode, string _city, string _street,\r\n            uint32 _houseNumber, uint32 _floor, string _description, uint32 _rent, uint32 _deposit, string _transactionMessage) public {\r\n        uint32 apartmentId = getId();\r\n        uint32 transactionId = getId();\r\n        ApartmentDetails memory apartment = ApartmentDetails(apartmentId, msg.sender, address(0),\r\n            _postCode, _city, _street, _houseNumber, _floor, _description, _rent, _deposit, false);\r\n        ApartmentTransaction memory transaction = ApartmentTransaction(transactionId, apartmentId, _transactionMessage);\r\n\r\n        apartments[msg.sender].push(apartmentId);\r\n        apartmentTransactionMappings[apartmentId].push(transactionId);\r\n        apartmentDetails[apartmentId] = apartment;\r\n        apartmentTransactions[transactionId] = transaction;\r\n    }\r\n\r\n    function getApartmentById(uint32 apartmentId) public view returns(uint32 _postCode, string _city, string _street,\r\n            uint32 _houseNumber, uint32 _floor, string _description, uint32 _rent, uint32 _deposit, bool _isRented) {\r\n        ApartmentDetails storage a = apartmentDetails[apartmentId];\r\n        return (a.postCode, a.city, a.street, a.houseNumber, a.floor, a.description, a.rent, a.deposit, a.isRented);\r\n    }\r\n\r\n    function getApartments() public view returns(uint32[]) {\r\n        return apartments[msg.sender];\r\n    }\r\n}",
  "sourcePath": "C:\\Users\\david.munkacsi\\smart-renting\\ethereum\\contracts\\Apartment.sol",
  "compiler": {
    "name": "solc",
    "version": "0.4.24+commit.e67f0147.Emscripten.clang"
  },
  "schemaVersion": "2.0.0",
  "updatedAt": "2018-07-02T19:41:39.761Z"
}