{
  "contractName": "Apartment",
  "abi": [
    {
      "inputs": [],
      "payable": false,
      "stateMutability": "nonpayable",
      "type": "constructor"
    },
    {
      "constant": false,
      "inputs": [
        {
          "name": "_id",
          "type": "string"
        },
        {
          "name": "_deposit",
          "type": "uint256"
        },
        {
          "name": "_rent",
          "type": "uint256"
        }
      ],
      "name": "createApartmentDetail",
      "outputs": [],
      "payable": false,
      "stateMutability": "nonpayable",
      "type": "function"
    },
    {
      "constant": false,
      "inputs": [
        {
          "name": "_id",
          "type": "string"
        }
      ],
      "name": "payRent",
      "outputs": [],
      "payable": true,
      "stateMutability": "payable",
      "type": "function"
    },
    {
      "constant": false,
      "inputs": [
        {
          "name": "_id",
          "type": "string"
        }
      ],
      "name": "payDeposit",
      "outputs": [],
      "payable": true,
      "stateMutability": "payable",
      "type": "function"
    }
  ],
  "bytecode": "0x608060405234801561001057600080fd5b50610762806100206000396000f300608060405260043610610057576000357c0100000000000000000000000000000000000000000000000000000000900463ffffffff16806372c42f141461005c57806372c516d0146100d95780637bef444c14610135575b600080fd5b34801561006857600080fd5b506100d7600480360381019080803590602001908201803590602001908080601f01602080910402602001604051908101604052809392919081815260200183838082843782019150505050505091929192908035906020019092919080359060200190929190505050610191565b005b610133600480360381019080803590602001908201803590602001908080601f0160208091040260200160405190810160405280939291908181526020018383808284378201915050505050509192919290505050610317565b005b61018f600480360381019080803590602001908201803590602001908080601f01602080910402602001604051908101604052809392919081815260200183838082843782019150505050505091929192905050506104d4565b005b600260003373ffffffffffffffffffffffffffffffffffffffff1673ffffffffffffffffffffffffffffffffffffffff16815260200190815260200160002060a0604051908101604052808581526020013373ffffffffffffffffffffffffffffffffffffffff168152602001600073ffffffffffffffffffffffffffffffffffffffff1681526020018481526020018381525090806001815401808255809150509060018203906000526020600020906005020160009091929091909150600082015181600001908051906020019061026c929190610691565b5060208201518160010160006101000a81548173ffffffffffffffffffffffffffffffffffffffff021916908373ffffffffffffffffffffffffffffffffffffffff16021790555060408201518160020160006101000a81548173ffffffffffffffffffffffffffffffffffffffff021916908373ffffffffffffffffffffffffffffffffffffffff1602179055506060820151816003015560808201518160040155505050505050565b600080600091505b60048054905082101561045257826040518082805190602001908083835b602083101515610362578051825260208201915060208101905060208303925061033d565b6001836020036101000a0380198251168184511680821785525050505050509050019150506040518091039020600019166004838154811015156103a257fe5b9060005260206000209060050201600001604051808280546001816001161561010002031660029004801561040e5780601f106103ec57610100808354040283529182019161040e565b820191906000526020600020905b8154815290600101906020018083116103fa575b505091505060405180910390206000191614156104455760048281548110151561043457fe5b906000526020600020906005020190505b818060010192505061031f565b34816003015414151561046457600080fd5b8060010160009054906101000a900473ffffffffffffffffffffffffffffffffffffffff1673ffffffffffffffffffffffffffffffffffffffff166108fc349081150290604051600060405180830381858888f193505050501580156104ce573d6000803e3d6000fd5b50505050565b600080600091505b60048054905082101561060f57826040518082805190602001908083835b60208310151561051f57805182526020820191506020810190506020830392506104fa565b6001836020036101000a03801982511681845116808217855250505050505090500191505060405180910390206000191660048381548110151561055f57fe5b906000526020600020906005020160000160405180828054600181600116156101000203166002900480156105cb5780601f106105a95761010080835404028352918201916105cb565b820191906000526020600020905b8154815290600101906020018083116105b7575b50509150506040518091039020600019161415610602576004828154811015156105f157fe5b906000526020600020906005020190505b81806001019250506104dc565b34816004015414151561062157600080fd5b8060010160009054906101000a900473ffffffffffffffffffffffffffffffffffffffff1673ffffffffffffffffffffffffffffffffffffffff166108fc349081150290604051600060405180830381858888f1935050505015801561068b573d6000803e3d6000fd5b50505050565b828054600181600116156101000203166002900490600052602060002090601f016020900481019282601f106106d257805160ff1916838001178555610700565b82800160010185558215610700579182015b828111156106ff5782518255916020019190600101906106e4565b5b50905061070d9190610711565b5090565b61073391905b8082111561072f576000816000905550600101610717565b5090565b905600a165627a7a72305820f6e86eb80069cfd689d13ce865f1e1b82b62c9043841128ea7237e9d1d2a0a7b0029",
  "source": "pragma solidity ^0.4.23;\r\n\r\ncontract Apartment {\r\n    mapping(uint => uint) apartmentRent;\r\n    mapping(uint => uint) apartmentDeposit;\r\n    mapping(address => ApartmentDetail[]) ownedApartments;\r\n    mapping(address => ApartmentDetail[]) rentedApartments;\r\n\r\n    ApartmentDetail[] apartmentlist;\r\n\r\n    struct ApartmentDetail {\r\n        string id;\r\n        address owner;\r\n        address tenant;\r\n        uint deposit;\r\n        uint rent;\r\n    }\r\n\r\n    constructor() public {\r\n    }\r\n\r\n\r\n    function createApartmentDetail(string _id, uint _deposit, uint _rent) public {\r\n        ownedApartments[msg.sender].push(ApartmentDetail({\r\n            id: _id,\r\n            owner: msg.sender,\r\n            tenant: address(0),\r\n            deposit: _deposit,\r\n            rent: _rent\r\n        }));\r\n    }\r\n\r\n    function payRent(string _id) public payable {\r\n        for(uint i = 0; i < apartmentlist.length; i++) {\r\n            if (keccak256(apartmentlist[i].id) == keccak256(_id)) {\r\n                ApartmentDetail storage apartment = apartmentlist[i];\r\n            }\r\n        }\r\n        require(apartment.rent == msg.value);\r\n        apartment.owner.transfer(msg.value);\r\n    }\r\n\r\n    function payDeposit(string _id) public payable {\r\n        for(uint i = 0; i < apartmentlist.length; i++) {\r\n            if (keccak256(apartmentlist[i].id) == keccak256(_id)) {\r\n                ApartmentDetail storage apartment = apartmentlist[i];\r\n            }\r\n        }\r\n        require(apartment.deposit == msg.value);\r\n        apartment.owner.transfer(msg.value);\r\n    }\r\n}",
  "sourcePath": "C:\\Users\\david.munkacsi\\smart-renting\\ethereum\\contracts\\Apartment.sol",
  "compiler": {
    "name": "solc",
    "version": "0.4.24+commit.e67f0147.Emscripten.clang"
  },
  "schemaVersion": "2.0.0",
  "updatedAt": "2018-06-29T20:23:33.389Z"
}