{
  "contractName": "Apartment",
  "abi": [
    {
      "inputs": [],
      "payable": false,
      "stateMutability": "nonpayable",
      "type": "constructor"
    },
    {
      "constant": false,
      "inputs": [
        {
          "name": "_id",
          "type": "string"
        },
        {
          "name": "_deposit",
          "type": "uint256"
        },
        {
          "name": "_rent",
          "type": "uint256"
        }
      ],
      "name": "createApartmentDetail",
      "outputs": [],
      "payable": true,
      "stateMutability": "payable",
      "type": "function"
    },
    {
      "constant": false,
      "inputs": [
        {
          "name": "to",
          "type": "address"
        }
      ],
      "name": "payRent",
      "outputs": [],
      "payable": true,
      "stateMutability": "payable",
      "type": "function"
    },
    {
      "constant": false,
      "inputs": [
        {
          "name": "_id",
          "type": "string"
        }
      ],
      "name": "payDeposit",
      "outputs": [],
      "payable": true,
      "stateMutability": "payable",
      "type": "function"
    }
  ],
  "bytecode": "0x608060405234801561001057600080fd5b506105bc806100206000396000f300608060405260043610610057576000357c0100000000000000000000000000000000000000000000000000000000900463ffffffff16806372c42f141461005c57806372c516d0146100cc578063dc40bcbb14610128575b600080fd5b6100ca600480360381019080803590602001908201803590602001908080601f0160208091040260200160405190810160405280939291908181526020018383808284378201915050505050509192919290803590602001909291908035906020019092919050505061015e565b005b610126600480360381019080803590602001908201803590602001908080601f01602080910402602001604051908101604052809392919081815260200183838082843782019150505050505091929192905050506102e4565b005b61015c600480360381019080803573ffffffffffffffffffffffffffffffffffffffff1690602001909291905050506104a1565b005b600260003373ffffffffffffffffffffffffffffffffffffffff1673ffffffffffffffffffffffffffffffffffffffff16815260200190815260200160002060a0604051908101604052808581526020013373ffffffffffffffffffffffffffffffffffffffff168152602001600073ffffffffffffffffffffffffffffffffffffffff168152602001848152602001838152509080600181540180825580915050906001820390600052602060002090600502016000909192909190915060008201518160000190805190602001906102399291906104eb565b5060208201518160010160006101000a81548173ffffffffffffffffffffffffffffffffffffffff021916908373ffffffffffffffffffffffffffffffffffffffff16021790555060408201518160020160006101000a81548173ffffffffffffffffffffffffffffffffffffffff021916908373ffffffffffffffffffffffffffffffffffffffff1602179055506060820151816003015560808201518160040155505050505050565b600080600091505b60048054905082101561041f57826040518082805190602001908083835b60208310151561032f578051825260208201915060208101905060208303925061030a565b6001836020036101000a03801982511681845116808217855250505050505090500191505060405180910390206000191660048381548110151561036f57fe5b906000526020600020906005020160000160405180828054600181600116156101000203166002900480156103db5780601f106103b95761010080835404028352918201916103db565b820191906000526020600020905b8154815290600101906020018083116103c7575b505091505060405180910390206000191614156104125760048281548110151561040157fe5b906000526020600020906005020190505b81806001019250506102ec565b34816003015414151561043157600080fd5b8060010160009054906101000a900473ffffffffffffffffffffffffffffffffffffffff1673ffffffffffffffffffffffffffffffffffffffff166108fc349081150290604051600060405180830381858888f1935050505015801561049b573d6000803e3d6000fd5b50505050565b8073ffffffffffffffffffffffffffffffffffffffff166108fc349081150290604051600060405180830381858888f193505050501580156104e7573d6000803e3d6000fd5b5050565b828054600181600116156101000203166002900490600052602060002090601f016020900481019282601f1061052c57805160ff191683800117855561055a565b8280016001018555821561055a579182015b8281111561055957825182559160200191906001019061053e565b5b509050610567919061056b565b5090565b61058d91905b80821115610589576000816000905550600101610571565b5090565b905600a165627a7a723058205cf05597242f67a3e721e5fa48803abc13faae9119ed3a4e2dd6e25e0a6162c40029",
  "source": "pragma solidity ^0.4.23;\r\n\r\ncontract Apartment {\r\n    mapping(uint => uint) apartmentRent;\r\n    mapping(uint => uint) apartmentDeposit;\r\n    mapping(address => ApartmentDetail[]) ownedApartments;\r\n    mapping(address => ApartmentDetail[]) rentedApartments;\r\n\r\n    ApartmentDetail[] apartmentlist;\r\n\r\n    struct ApartmentDetail {\r\n        string id;\r\n        address owner;\r\n        address tenant;\r\n        uint deposit;\r\n        uint rent;\r\n    }\r\n\r\n    constructor() public {\r\n    }\r\n\r\n\r\n    function createApartmentDetail(string _id, uint _deposit, uint _rent) public payable {\r\n        ownedApartments[msg.sender].push(ApartmentDetail({\r\n            id: _id,\r\n            owner: msg.sender,\r\n            tenant: address(0),\r\n            deposit: _deposit,\r\n            rent: _rent\r\n        }));\r\n    }\r\n\r\n    function payRent(address to) public payable {\r\n        to.transfer(msg.value);\r\n    }\r\n\r\n    function payDeposit(string _id) public payable {\r\n        for(uint i = 0; i < apartmentlist.length; i++) {\r\n            if (keccak256(apartmentlist[i].id) == keccak256(_id)) {\r\n                ApartmentDetail storage apartment = apartmentlist[i];\r\n            }\r\n        }\r\n        require(apartment.deposit == msg.value);\r\n        apartment.owner.transfer(msg.value);\r\n    }\r\n}",
  "sourcePath": "C:\\Users\\david.munkacsi\\smart-renting\\ethereum\\contracts\\Apartment.sol",
  "compiler": {
    "name": "solc",
    "version": "0.4.24+commit.e67f0147.Emscripten.clang"
  },
  "schemaVersion": "2.0.0",
  "updatedAt": "2018-06-30T18:25:00.850Z"
}