{
  "contractName": "Apartment",
  "abi": [
    {
      "inputs": [],
      "payable": false,
      "stateMutability": "nonpayable",
      "type": "constructor"
    },
    {
      "constant": false,
      "inputs": [
        {
          "name": "_id",
          "type": "string"
        },
        {
          "name": "_deposit",
          "type": "uint256"
        },
        {
          "name": "_rent",
          "type": "uint256"
        }
      ],
      "name": "createApartmentDetail",
      "outputs": [],
      "payable": true,
      "stateMutability": "payable",
      "type": "function"
    },
    {
      "constant": false,
      "inputs": [
        {
          "name": "_id",
          "type": "string"
        }
      ],
      "name": "payRent",
      "outputs": [],
      "payable": true,
      "stateMutability": "payable",
      "type": "function"
    },
    {
      "constant": false,
      "inputs": [
        {
          "name": "_id",
          "type": "string"
        }
      ],
      "name": "payDeposit",
      "outputs": [],
      "payable": true,
      "stateMutability": "payable",
      "type": "function"
    }
  ],
  "bytecode": "0x608060405234801561001057600080fd5b50610755806100206000396000f300608060405260043610610057576000357c0100000000000000000000000000000000000000000000000000000000900463ffffffff16806372c42f141461005c57806372c516d0146100cc5780637bef444c14610128575b600080fd5b6100ca600480360381019080803590602001908201803590602001908080601f01602080910402602001604051908101604052809392919081815260200183838082843782019150505050505091929192908035906020019092919080359060200190929190505050610184565b005b610126600480360381019080803590602001908201803590602001908080601f016020809104026020016040519081016040528093929190818152602001838380828437820191505050505050919291929050505061030a565b005b610182600480360381019080803590602001908201803590602001908080601f01602080910402602001604051908101604052809392919081815260200183838082843782019150505050505091929192905050506104c7565b005b600260003373ffffffffffffffffffffffffffffffffffffffff1673ffffffffffffffffffffffffffffffffffffffff16815260200190815260200160002060a0604051908101604052808581526020013373ffffffffffffffffffffffffffffffffffffffff168152602001600073ffffffffffffffffffffffffffffffffffffffff1681526020018481526020018381525090806001815401808255809150509060018203906000526020600020906005020160009091929091909150600082015181600001908051906020019061025f929190610684565b5060208201518160010160006101000a81548173ffffffffffffffffffffffffffffffffffffffff021916908373ffffffffffffffffffffffffffffffffffffffff16021790555060408201518160020160006101000a81548173ffffffffffffffffffffffffffffffffffffffff021916908373ffffffffffffffffffffffffffffffffffffffff1602179055506060820151816003015560808201518160040155505050505050565b600080600091505b60048054905082101561044557826040518082805190602001908083835b6020831015156103555780518252602082019150602081019050602083039250610330565b6001836020036101000a03801982511681845116808217855250505050505090500191505060405180910390206000191660048381548110151561039557fe5b906000526020600020906005020160000160405180828054600181600116156101000203166002900480156104015780601f106103df576101008083540402835291820191610401565b820191906000526020600020905b8154815290600101906020018083116103ed575b505091505060405180910390206000191614156104385760048281548110151561042757fe5b906000526020600020906005020190505b8180600101925050610312565b34816003015414151561045757600080fd5b8060010160009054906101000a900473ffffffffffffffffffffffffffffffffffffffff1673ffffffffffffffffffffffffffffffffffffffff166108fc349081150290604051600060405180830381858888f193505050501580156104c1573d6000803e3d6000fd5b50505050565b600080600091505b60048054905082101561060257826040518082805190602001908083835b60208310151561051257805182526020820191506020810190506020830392506104ed565b6001836020036101000a03801982511681845116808217855250505050505090500191505060405180910390206000191660048381548110151561055257fe5b906000526020600020906005020160000160405180828054600181600116156101000203166002900480156105be5780601f1061059c5761010080835404028352918201916105be565b820191906000526020600020905b8154815290600101906020018083116105aa575b505091505060405180910390206000191614156105f5576004828154811015156105e457fe5b906000526020600020906005020190505b81806001019250506104cf565b34816004015414151561061457600080fd5b8060010160009054906101000a900473ffffffffffffffffffffffffffffffffffffffff1673ffffffffffffffffffffffffffffffffffffffff166108fc349081150290604051600060405180830381858888f1935050505015801561067e573d6000803e3d6000fd5b50505050565b828054600181600116156101000203166002900490600052602060002090601f016020900481019282601f106106c557805160ff19168380011785556106f3565b828001600101855582156106f3579182015b828111156106f25782518255916020019190600101906106d7565b5b5090506107009190610704565b5090565b61072691905b8082111561072257600081600090555060010161070a565b5090565b905600a165627a7a723058208133fa67dd3e6af90af42511c947f8674951ace62bfaaf7e0c92e36b912392450029",
  "source": "pragma solidity ^0.4.23;\r\n\r\ncontract Apartment {\r\n    mapping(uint => uint) apartmentRent;\r\n    mapping(uint => uint) apartmentDeposit;\r\n    mapping(address => ApartmentDetail[]) ownedApartments;\r\n    mapping(address => ApartmentDetail[]) rentedApartments;\r\n\r\n    ApartmentDetail[] apartmentlist;\r\n\r\n    struct ApartmentDetail {\r\n        string id;\r\n        address owner;\r\n        address tenant;\r\n        uint deposit;\r\n        uint rent;\r\n    }\r\n\r\n    constructor() public {\r\n    }\r\n\r\n\r\n    function createApartmentDetail(string _id, uint _deposit, uint _rent) public payable {\r\n        ownedApartments[msg.sender].push(ApartmentDetail({\r\n            id: _id,\r\n            owner: msg.sender,\r\n            tenant: address(0),\r\n            deposit: _deposit,\r\n            rent: _rent\r\n        }));\r\n    }\r\n\r\n    function payRent(string _id) public payable {\r\n        for(uint i = 0; i < apartmentlist.length; i++) {\r\n            if (keccak256(apartmentlist[i].id) == keccak256(_id)) {\r\n                ApartmentDetail storage apartment = apartmentlist[i];\r\n            }\r\n        }\r\n        require(apartment.rent == msg.value);\r\n        apartment.owner.transfer(msg.value);\r\n    }\r\n\r\n    function payDeposit(string _id) public payable {\r\n        for(uint i = 0; i < apartmentlist.length; i++) {\r\n            if (keccak256(apartmentlist[i].id) == keccak256(_id)) {\r\n                ApartmentDetail storage apartment = apartmentlist[i];\r\n            }\r\n        }\r\n        require(apartment.deposit == msg.value);\r\n        apartment.owner.transfer(msg.value);\r\n    }\r\n}",
  "sourcePath": "C:\\Users\\david.munkacsi\\smart-renting\\ethereum\\contracts\\Apartment.sol",
  "compiler": {
    "name": "solc",
    "version": "0.4.24+commit.e67f0147.Emscripten.clang"
  },
  "schemaVersion": "2.0.0",
  "updatedAt": "2018-06-30T11:20:09.822Z"
}