{
  "contractName": "Apartment",
  "abi": [
    {
      "inputs": [],
      "payable": false,
      "stateMutability": "nonpayable",
      "type": "constructor"
    },
    {
      "anonymous": false,
      "inputs": [
        {
          "indexed": false,
          "name": "from",
          "type": "address"
        },
        {
          "indexed": false,
          "name": "to",
          "type": "address"
        }
      ],
      "name": "PaymentApproved",
      "type": "event"
    },
    {
      "anonymous": false,
      "inputs": [
        {
          "indexed": false,
          "name": "from",
          "type": "address"
        },
        {
          "indexed": false,
          "name": "to",
          "type": "address"
        },
        {
          "indexed": false,
          "name": "username",
          "type": "string"
        },
        {
          "indexed": false,
          "name": "value",
          "type": "uint32"
        }
      ],
      "name": "PaymentReceived",
      "type": "event"
    },
    {
      "anonymous": false,
      "inputs": [
        {
          "indexed": false,
          "name": "from",
          "type": "address"
        },
        {
          "indexed": false,
          "name": "to",
          "type": "address"
        },
        {
          "indexed": false,
          "name": "username",
          "type": "string"
        }
      ],
      "name": "RentPaid",
      "type": "event"
    },
    {
      "anonymous": false,
      "inputs": [
        {
          "indexed": false,
          "name": "from",
          "type": "address"
        },
        {
          "indexed": false,
          "name": "to",
          "type": "address"
        },
        {
          "indexed": false,
          "name": "username",
          "type": "string"
        }
      ],
      "name": "IssueCreated",
      "type": "event"
    },
    {
      "anonymous": false,
      "inputs": [
        {
          "indexed": false,
          "name": "from",
          "type": "address"
        },
        {
          "indexed": false,
          "name": "to",
          "type": "address"
        },
        {
          "indexed": false,
          "name": "message",
          "type": "string"
        }
      ],
      "name": "ContractTerminated",
      "type": "event"
    },
    {
      "constant": false,
      "inputs": [
        {
          "name": "_postCode",
          "type": "uint32"
        },
        {
          "name": "_city",
          "type": "string"
        },
        {
          "name": "_street",
          "type": "string"
        },
        {
          "name": "_houseNumber",
          "type": "uint32"
        },
        {
          "name": "_floor",
          "type": "uint32"
        },
        {
          "name": "_description",
          "type": "string"
        },
        {
          "name": "_rent",
          "type": "uint32"
        },
        {
          "name": "_deposit",
          "type": "uint32"
        },
        {
          "name": "_transactionMessage",
          "type": "string"
        }
      ],
      "name": "createApartment",
      "outputs": [],
      "payable": false,
      "stateMutability": "nonpayable",
      "type": "function"
    },
    {
      "constant": false,
      "inputs": [
        {
          "name": "_apartmentId",
          "type": "uint32"
        },
        {
          "name": "_tenant",
          "type": "address"
        }
      ],
      "name": "updateApartment",
      "outputs": [],
      "payable": false,
      "stateMutability": "nonpayable",
      "type": "function"
    },
    {
      "constant": false,
      "inputs": [
        {
          "name": "_apartmentId",
          "type": "uint32"
        },
        {
          "name": "_transactionMessage",
          "type": "string"
        }
      ],
      "name": "createTransaction",
      "outputs": [],
      "payable": false,
      "stateMutability": "nonpayable",
      "type": "function"
    },
    {
      "constant": true,
      "inputs": [],
      "name": "getRentedApartments",
      "outputs": [
        {
          "name": "",
          "type": "uint32[]"
        }
      ],
      "payable": false,
      "stateMutability": "view",
      "type": "function"
    },
    {
      "constant": true,
      "inputs": [],
      "name": "getApartments",
      "outputs": [
        {
          "name": "",
          "type": "uint32[]"
        }
      ],
      "payable": false,
      "stateMutability": "view",
      "type": "function"
    },
    {
      "constant": true,
      "inputs": [
        {
          "name": "apartmentId",
          "type": "uint32"
        }
      ],
      "name": "getTransactionIds",
      "outputs": [
        {
          "name": "",
          "type": "uint32[]"
        }
      ],
      "payable": false,
      "stateMutability": "view",
      "type": "function"
    },
    {
      "constant": true,
      "inputs": [
        {
          "name": "transactionId",
          "type": "uint32"
        }
      ],
      "name": "getTransactionById",
      "outputs": [
        {
          "name": "_id",
          "type": "uint32"
        },
        {
          "name": "_apartmentId",
          "type": "uint32"
        },
        {
          "name": "_message",
          "type": "string"
        },
        {
          "name": "_timestamp",
          "type": "uint256"
        }
      ],
      "payable": false,
      "stateMutability": "view",
      "type": "function"
    },
    {
      "constant": true,
      "inputs": [
        {
          "name": "apartmentId",
          "type": "uint32"
        }
      ],
      "name": "getApartmentById",
      "outputs": [
        {
          "name": "_id",
          "type": "uint32"
        },
        {
          "name": "_owner",
          "type": "address"
        },
        {
          "name": "_tenant",
          "type": "address"
        },
        {
          "name": "_postCode",
          "type": "uint32"
        },
        {
          "name": "_city",
          "type": "string"
        },
        {
          "name": "_street",
          "type": "string"
        },
        {
          "name": "_houseNumber",
          "type": "uint32"
        },
        {
          "name": "_floor",
          "type": "uint32"
        },
        {
          "name": "_description",
          "type": "string"
        },
        {
          "name": "_rent",
          "type": "uint32"
        },
        {
          "name": "_deposit",
          "type": "uint32"
        },
        {
          "name": "_isRented",
          "type": "bool"
        }
      ],
      "payable": false,
      "stateMutability": "view",
      "type": "function"
    },
    {
      "constant": false,
      "inputs": [
        {
          "name": "_to",
          "type": "address"
        },
        {
          "name": "_username",
          "type": "string"
        },
        {
          "name": "_value",
          "type": "uint32"
        }
      ],
      "name": "firePayment",
      "outputs": [],
      "payable": false,
      "stateMutability": "nonpayable",
      "type": "function"
    },
    {
      "constant": false,
      "inputs": [
        {
          "name": "_to",
          "type": "address"
        },
        {
          "name": "_username",
          "type": "string"
        }
      ],
      "name": "fireRentPaid",
      "outputs": [],
      "payable": false,
      "stateMutability": "nonpayable",
      "type": "function"
    },
    {
      "constant": false,
      "inputs": [
        {
          "name": "_to",
          "type": "address"
        },
        {
          "name": "_username",
          "type": "string"
        }
      ],
      "name": "fireIssueCreated",
      "outputs": [],
      "payable": false,
      "stateMutability": "nonpayable",
      "type": "function"
    },
    {
      "constant": false,
      "inputs": [
        {
          "name": "_apartmentId",
          "type": "uint32"
        },
        {
          "name": "_owner",
          "type": "address"
        },
        {
          "name": "_message",
          "type": "string"
        }
      ],
      "name": "terminateContract",
      "outputs": [],
      "payable": false,
      "stateMutability": "nonpayable",
      "type": "function"
    }
  ],
  "bytecode": "0x608060405260008060006101000a81548163ffffffff021916908363ffffffff16021790555034801561003157600080fd5b5061237e806100416000396000f3006080604052600436106100ba576000357c0100000000000000000000000000000000000000000000000000000000900463ffffffff168063098b72b5146100bf5780633d506f34146103265780634809ea66146103bf57806351c4ffff1461044857806359a1dde2146104e157806390aae4551461054d57806392d65f30146105d5578063a5c01b0014610628578063b1c98099146106b1578063b83d481a1461071d578063c05db1fa14610796578063e6e45e5f14610921575b600080fd5b3480156100cb57600080fd5b506100f0600480360381019080803563ffffffff1690602001909291905050506109fa565b604051808d63ffffffff1663ffffffff1681526020018c73ffffffffffffffffffffffffffffffffffffffff1673ffffffffffffffffffffffffffffffffffffffff1681526020018b73ffffffffffffffffffffffffffffffffffffffff1673ffffffffffffffffffffffffffffffffffffffff1681526020018a63ffffffff1663ffffffff16815260200180602001806020018963ffffffff1663ffffffff1681526020018863ffffffff1663ffffffff168152602001806020018763ffffffff1663ffffffff1681526020018663ffffffff1663ffffffff1681526020018515151515815260200184810384528c818151815260200191508051906020019080838360005b838110156102125780820151818401526020810190506101f7565b50505050905090810190601f16801561023f5780820380516001836020036101000a031916815260200191505b5084810383528b818151815260200191508051906020019080838360005b8381101561027857808201518184015260208101905061025d565b50505050905090810190601f1680156102a55780820380516001836020036101000a031916815260200191505b50848103825288818151815260200191508051906020019080838360005b838110156102de5780820151818401526020810190506102c3565b50505050905090810190601f16801561030b5780820380516001836020036101000a031916815260200191505b509f5050505050505050505050505050505060405180910390f35b34801561033257600080fd5b506103bd600480360381019080803573ffffffffffffffffffffffffffffffffffffffff169060200190929190803590602001908201803590602001908080601f0160208091040260200160405190810160405280939291908181526020018383808284378201915050505050509192919290803563ffffffff169060200190929190505050610d11565b005b3480156103cb57600080fd5b50610446600480360381019080803573ffffffffffffffffffffffffffffffffffffffff169060200190929190803590602001908201803590602001908080601f0160208091040260200160405190810160405280939291908181526020018383808284378201915050505050509192919290505050610e2e565b005b34801561045457600080fd5b506104df600480360381019080803563ffffffff169060200190929190803573ffffffffffffffffffffffffffffffffffffffff169060200190929190803590602001908201803590602001908080601f0160208091040260200160405190810160405280939291908181526020018383808284378201915050505050509192919290505050610f36565b005b3480156104ed57600080fd5b506104f66112cd565b6040518080602001828103825283818151815260200191508051906020019060200280838360005b8381101561053957808201518184015260208101905061051e565b505050509050019250505060405180910390f35b34801561055957600080fd5b5061057e600480360381019080803563ffffffff16906020019092919050505061138e565b6040518080602001828103825283818151815260200191508051906020019060200280838360005b838110156105c15780820151818401526020810190506105a6565b505050509050019250505060405180910390f35b3480156105e157600080fd5b50610626600480360381019080803563ffffffff169060200190929190803573ffffffffffffffffffffffffffffffffffffffff169060200190929190505050611431565b005b34801561063457600080fd5b506106af600480360381019080803573ffffffffffffffffffffffffffffffffffffffff169060200190929190803590602001908201803590602001908080601f01602080910402602001604051908101604052809392919081815260200183838082843782019150505050505091929192905050506116b1565b005b3480156106bd57600080fd5b506106c66117b9565b6040518080602001828103825283818151815260200191508051906020019060200280838360005b838110156107095780820151818401526020810190506106ee565b505050509050019250505060405180910390f35b34801561072957600080fd5b50610794600480360381019080803563ffffffff169060200190929190803590602001908201803590602001908080601f016020809104026020016040519081016040528093929190818152602001838380828437820191505050505050919291929050505061187a565b005b3480156107a257600080fd5b5061091f600480360381019080803563ffffffff169060200190929190803590602001908201803590602001908080601f0160208091040260200160405190810160405280939291908181526020018383808284378201915050505050509192919290803590602001908201803590602001908080601f0160208091040260200160405190810160405280939291908181526020018383808284378201915050505050509192919290803563ffffffff169060200190929190803563ffffffff169060200190929190803590602001908201803590602001908080601f0160208091040260200160405190810160405280939291908181526020018383808284378201915050505050509192919290803563ffffffff169060200190929190803563ffffffff169060200190929190803590602001908201803590602001908080601f01602080910402602001604051908101604052809392919081815260200183838082843782019150505050505091929192905050506119ca565b005b34801561092d57600080fd5b50610952600480360381019080803563ffffffff169060200190929190505050611e83565b604051808563ffffffff1663ffffffff1681526020018463ffffffff1663ffffffff16815260200180602001838152602001828103825284818151815260200191508051906020019080838360005b838110156109bc5780820151818401526020810190506109a1565b50505050905090810190601f1680156109e95780820380516001836020036101000a031916815260200191505b509550505050505060405180910390f35b6000806000806060806000806060600080600080600360008f63ffffffff1663ffffffff16815260200190815260200160002090508060000160009054906101000a900463ffffffff168160000160049054906101000a900473ffffffffffffffffffffffffffffffffffffffff168260010160009054906101000a900473ffffffffffffffffffffffffffffffffffffffff168360010160149054906101000a900463ffffffff1684600201856003018660040160009054906101000a900463ffffffff168760040160049054906101000a900463ffffffff16886005018960060160009054906101000a900463ffffffff168a60060160049054906101000a900463ffffffff168b60060160089054906101000a900460ff16878054600181600116156101000203166002900480601f016020809104026020016040519081016040528092919081815260200182805460018160011615610100020316600290048015610baa5780601f10610b7f57610100808354040283529160200191610baa565b820191906000526020600020905b815481529060010190602001808311610b8d57829003601f168201915b50505050509750868054600181600116156101000203166002900480601f016020809104026020016040519081016040528092919081815260200182805460018160011615610100020316600290048015610c465780601f10610c1b57610100808354040283529160200191610c46565b820191906000526020600020905b815481529060010190602001808311610c2957829003601f168201915b50505050509650838054600181600116156101000203166002900480601f016020809104026020016040519081016040528092919081815260200182805460018160011615610100020316600290048015610ce25780601f10610cb757610100808354040283529160200191610ce2565b820191906000526020600020905b815481529060010190602001808311610cc557829003601f168201915b505050505093509c509c509c509c509c509c509c509c509c509c509c509c505091939597999b5091939597999b565b7f4d8e7737a847b862f801269bd3032392deb58303ea701c764985af1564084e1c33848484604051808573ffffffffffffffffffffffffffffffffffffffff1673ffffffffffffffffffffffffffffffffffffffff1681526020018473ffffffffffffffffffffffffffffffffffffffff1673ffffffffffffffffffffffffffffffffffffffff168152602001806020018363ffffffff1663ffffffff168152602001828103825284818151815260200191508051906020019080838360005b83811015610dec578082015181840152602081019050610dd1565b50505050905090810190601f168015610e195780820380516001836020036101000a031916815260200191505b509550505050505060405180910390a1505050565b7f723915d38185bd57095b76a43f0aadf98a7746c45cf41ee03346dd2f0f9a9df1338383604051808473ffffffffffffffffffffffffffffffffffffffff1673ffffffffffffffffffffffffffffffffffffffff1681526020018373ffffffffffffffffffffffffffffffffffffffff1673ffffffffffffffffffffffffffffffffffffffff16815260200180602001828103825283818151815260200191508051906020019080838360005b83811015610ef6578082015181840152602081019050610edb565b50505050905090810190601f168015610f235780820380516001836020036101000a031916815260200191505b5094505050505060405180910390a15050565b6060600080600360008763ffffffff1663ffffffff16815260200190815260200160002060010160009054906101000a900473ffffffffffffffffffffffffffffffffffffffff1673ffffffffffffffffffffffffffffffffffffffff163373ffffffffffffffffffffffffffffffffffffffff16141515610fb757600080fd5b6000600360008863ffffffff1663ffffffff16815260200190815260200160002060010160006101000a81548173ffffffffffffffffffffffffffffffffffffffff021916908373ffffffffffffffffffffffffffffffffffffffff1602179055506000600360008863ffffffff1663ffffffff16815260200190815260200160002060060160086101000a81548160ff021916908315150217905550600260003373ffffffffffffffffffffffffffffffffffffffff1673ffffffffffffffffffffffffffffffffffffffff16815260200190815260200160002080548060200260200160405190810160405280929190818152602001828054801561110957602002820191906000526020600020906000905b82829054906101000a900463ffffffff1663ffffffff16815260200190600401906020826003010492830192600103820291508084116110cc5790505b50505050509250600090505b825181101561115a578563ffffffff16838281518110151561113357fe5b9060200190602002015163ffffffff16141561114d578091505b8080600101915050611115565b6111648383611f8b565b600260003373ffffffffffffffffffffffffffffffffffffffff1673ffffffffffffffffffffffffffffffffffffffff16815260200190815260200160002090805190602001906111b69291906120e1565b506111c1868561187a565b7fea2842d801eba2b214f20f6da716676e9605af2d3291fd4d22bf5d88314539e1338686604051808473ffffffffffffffffffffffffffffffffffffffff1673ffffffffffffffffffffffffffffffffffffffff1681526020018373ffffffffffffffffffffffffffffffffffffffff1673ffffffffffffffffffffffffffffffffffffffff16815260200180602001828103825283818151815260200191508051906020019080838360005b8381101561128957808201518184015260208101905061126e565b50505050905090810190601f1680156112b65780820380516001836020036101000a031916815260200191505b5094505050505060405180910390a1505050505050565b6060600260003373ffffffffffffffffffffffffffffffffffffffff1673ffffffffffffffffffffffffffffffffffffffff16815260200190815260200160002080548060200260200160405190810160405280929190818152602001828054801561138457602002820191906000526020600020906000905b82829054906101000a900463ffffffff1663ffffffff16815260200190600401906020826003010492830192600103820291508084116113475790505b5050505050905090565b6060600460008363ffffffff1663ffffffff16815260200190815260200160002080548060200260200160405190810160405280929190818152602001828054801561142557602002820191906000526020600020906000905b82829054906101000a900463ffffffff1663ffffffff16815260200190600401906020826003010492830192600103820291508084116113e85790505b50505050509050919050565b600360008363ffffffff1663ffffffff16815260200190815260200160002060000160049054906101000a900473ffffffffffffffffffffffffffffffffffffffff1673ffffffffffffffffffffffffffffffffffffffff163373ffffffffffffffffffffffffffffffffffffffff161415156114ad57600080fd5b80600360008463ffffffff1663ffffffff16815260200190815260200160002060010160006101000a81548173ffffffffffffffffffffffffffffffffffffffff021916908373ffffffffffffffffffffffffffffffffffffffff1602179055506001600360008463ffffffff1663ffffffff16815260200190815260200160002060060160086101000a81548160ff021916908315150217905550600260008273ffffffffffffffffffffffffffffffffffffffff1673ffffffffffffffffffffffffffffffffffffffff16815260200190815260200160002082908060018154018082558091505090600182039060005260206000209060089182820401919006600402909192909190916101000a81548163ffffffff021916908363ffffffff16021790555050611616826040805190810160405280601c81526020017f546865206f776e657220617070726f766564207468652072656e742e0000000081525061187a565b7f08fa743480214f8dd1de99b3c6f71db0b629870313f722b432a2e1cb3bcc1bee3382604051808373ffffffffffffffffffffffffffffffffffffffff1673ffffffffffffffffffffffffffffffffffffffff1681526020018273ffffffffffffffffffffffffffffffffffffffff1673ffffffffffffffffffffffffffffffffffffffff1681526020019250505060405180910390a15050565b7f4439b7fa5f173ce834ac1f212cde262d7d8012e5c1c4f0ea7cdf05b7ebe178a5338383604051808473ffffffffffffffffffffffffffffffffffffffff1673ffffffffffffffffffffffffffffffffffffffff1681526020018373ffffffffffffffffffffffffffffffffffffffff1673ffffffffffffffffffffffffffffffffffffffff16815260200180602001828103825283818151815260200191508051906020019080838360005b8381101561177957808201518184015260208101905061175e565b50505050905090810190601f1680156117a65780820380516001836020036101000a031916815260200191505b5094505050505060405180910390a15050565b6060600160003373ffffffffffffffffffffffffffffffffffffffff1673ffffffffffffffffffffffffffffffffffffffff16815260200190815260200160002080548060200260200160405190810160405280929190818152602001828054801561187057602002820191906000526020600020906000905b82829054906101000a900463ffffffff1663ffffffff16815260200190600401906020826003010492830192600103820291508084116118335790505b5050505050905090565b6000611884612191565b61188c6120a1565b91506080604051908101604052808363ffffffff1681526020018563ffffffff168152602001848152602001428152509050600460008563ffffffff1663ffffffff16815260200190815260200160002082908060018154018082558091505090600182039060005260206000209060089182820401919006600402909192909190916101000a81548163ffffffff021916908363ffffffff1602179055505080600560008463ffffffff1663ffffffff16815260200190815260200160002060008201518160000160006101000a81548163ffffffff021916908363ffffffff16021790555060208201518160000160046101000a81548163ffffffff021916908363ffffffff16021790555060408201518160010190805190602001906119b69291906121c6565b506060820151816002015590505050505050565b6000806119d5612246565b6119dd612191565b6119e56120a1565b93506119ef6120a1565b9250610180604051908101604052808563ffffffff1681526020013373ffffffffffffffffffffffffffffffffffffffff168152602001600073ffffffffffffffffffffffffffffffffffffffff1681526020018e63ffffffff1681526020018d81526020018c81526020018b63ffffffff1681526020018a63ffffffff1681526020018981526020018863ffffffff1681526020018763ffffffff1681526020016000151581525091506080604051908101604052808463ffffffff1681526020018563ffffffff168152602001868152602001428152509050600160003373ffffffffffffffffffffffffffffffffffffffff1673ffffffffffffffffffffffffffffffffffffffff16815260200190815260200160002084908060018154018082558091505090600182039060005260206000209060089182820401919006600402909192909190916101000a81548163ffffffff021916908363ffffffff16021790555050600460008563ffffffff1663ffffffff16815260200190815260200160002083908060018154018082558091505090600182039060005260206000209060089182820401919006600402909192909190916101000a81548163ffffffff021916908363ffffffff1602179055505081600360008663ffffffff1663ffffffff16815260200190815260200160002060008201518160000160006101000a81548163ffffffff021916908363ffffffff16021790555060208201518160000160046101000a81548173ffffffffffffffffffffffffffffffffffffffff021916908373ffffffffffffffffffffffffffffffffffffffff16021790555060408201518160010160006101000a81548173ffffffffffffffffffffffffffffffffffffffff021916908373ffffffffffffffffffffffffffffffffffffffff16021790555060608201518160010160146101000a81548163ffffffff021916908363ffffffff1602179055506080820151816002019080519060200190611cde9291906121c6565b5060a0820151816003019080519060200190611cfb9291906121c6565b5060c08201518160040160006101000a81548163ffffffff021916908363ffffffff16021790555060e08201518160040160046101000a81548163ffffffff021916908363ffffffff160217905550610100820151816005019080519060200190611d679291906121c6565b506101208201518160060160006101000a81548163ffffffff021916908363ffffffff1602179055506101408201518160060160046101000a81548163ffffffff021916908363ffffffff1602179055506101608201518160060160086101000a81548160ff02191690831515021790555090505080600560008563ffffffff1663ffffffff16815260200190815260200160002060008201518160000160006101000a81548163ffffffff021916908363ffffffff16021790555060208201518160000160046101000a81548163ffffffff021916908363ffffffff1602179055506040820151816001019080519060200190611e669291906121c6565b506060820151816002015590505050505050505050505050505050565b6000806060600080600560008763ffffffff1663ffffffff16815260200190815260200160002090508060000160009054906101000a900463ffffffff168160000160049054906101000a900463ffffffff16826001018360020154818054600181600116156101000203166002900480601f016020809104026020016040519081016040528092919081815260200182805460018160011615610100020316600290048015611f745780601f10611f4957610100808354040283529160200191611f74565b820191906000526020600020905b815481529060010190602001808311611f5757829003601f168201915b505050505091509450945094509450509193509193565b6060806000845184101515611f9f57612099565b6001855103604051908082528060200260200182016040528015611fd25781602001602082028038833980820191505090505b509150600090505b815181101561209157838114158015611ff257508381105b1561203e57848181518110151561200557fe5b90602001906020020151828281518110151561201d57fe5b9060200190602002019063ffffffff16908163ffffffff1681525050612084565b846001820181518110151561204f57fe5b90602001906020020151828281518110151561206757fe5b9060200190602002019063ffffffff16908163ffffffff16815250505b8080600101915050611fda565b606094508192505b505092915050565b600080600081819054906101000a900463ffffffff168092919060010191906101000a81548163ffffffff021916908363ffffffff160217905550905090565b828054828255906000526020600020906007016008900481019282156121805791602002820160005b8382111561214e57835183826101000a81548163ffffffff021916908363ffffffff160217905550926020019260040160208160030104928301926001030261210a565b801561217e5782816101000a81549063ffffffff021916905560040160208160030104928301926001030261214e565b505b50905061218d91906122fa565b5090565b608060405190810160405280600063ffffffff168152602001600063ffffffff16815260200160608152602001600081525090565b828054600181600116156101000203166002900490600052602060002090601f016020900481019282601f1061220757805160ff1916838001178555612235565b82800160010185558215612235579182015b82811115612234578251825591602001919060010190612219565b5b509050612242919061232d565b5090565b61018060405190810160405280600063ffffffff168152602001600073ffffffffffffffffffffffffffffffffffffffff168152602001600073ffffffffffffffffffffffffffffffffffffffff168152602001600063ffffffff1681526020016060815260200160608152602001600063ffffffff168152602001600063ffffffff16815260200160608152602001600063ffffffff168152602001600063ffffffff1681526020016000151581525090565b61232a91905b8082111561232657600081816101000a81549063ffffffff021916905550600101612300565b5090565b90565b61234f91905b8082111561234b576000816000905550600101612333565b5090565b905600a165627a7a72305820fa7be7f5f166c924dd35ff54dd5ee26bfe58c9daf1e7cb24c6472beffa7bf15e0029",
  "source": "pragma solidity ^0.4.23;\r\n\r\ncontract Apartment {\r\n    uint32 private counter = 0;\r\n    mapping(address => uint32[]) apartments;\r\n    mapping(address => uint32[]) rentedApartments;\r\n    mapping(uint32 => ApartmentDetails) apartmentDetails;\r\n    mapping(uint32 => uint32[]) apartmentTransactionMappings;\r\n    mapping(uint32 => ApartmentTransaction) apartmentTransactions;\r\n\r\n    constructor() public {\r\n    }\r\n\r\n    struct ApartmentTransaction {\r\n        uint32 id;\r\n        uint32 apartmentId;\r\n        string message;\r\n        uint timestamp;\r\n    }\r\n\r\n    struct ApartmentDetails {\r\n        uint32 id;\r\n        address owner;\r\n        address tenant;\r\n        uint32 postCode;\r\n        string city;\r\n        string street;\r\n        uint32 houseNumber;\r\n        uint32 floor;\r\n        string description;\r\n        uint32 rent;\r\n        uint32 deposit;\r\n        bool isRented;\r\n    }\r\n\r\n    event PaymentApproved(\r\n        address from,\r\n        address to\r\n    );\r\n\r\n    event PaymentReceived(\r\n        address from,\r\n        address to,\r\n        string username,\r\n        uint32 value\r\n    );\r\n\r\n    event RentPaid(\r\n        address from,\r\n        address to,\r\n        string username\r\n    );\r\n\r\n    event IssueCreated(\r\n        address from,\r\n        address to,\r\n        string username\r\n    );\r\n\r\n    event ContractTerminated(\r\n        address from,\r\n        address to,\r\n        string message\r\n    );\r\n\r\n    function getId() private returns(uint32) {\r\n        return counter++;\r\n    }\r\n\r\n    function createApartment(\r\n        uint32 _postCode, string _city, string _street,\r\n        uint32 _houseNumber, uint32 _floor, string _description, uint32 _rent,\r\n        uint32 _deposit, string _transactionMessage) public {\r\n        uint32 apartmentId = getId();\r\n        uint32 transactionId = getId();\r\n        ApartmentDetails memory apartment = ApartmentDetails(\r\n            apartmentId, msg.sender, address(0),\r\n            _postCode, _city, _street, _houseNumber, _floor, _description, _rent, _deposit, false);\r\n        ApartmentTransaction memory transaction = ApartmentTransaction(transactionId, apartmentId, _transactionMessage, now);\r\n\r\n        apartments[msg.sender].push(apartmentId);\r\n        apartmentTransactionMappings[apartmentId].push(transactionId);\r\n        apartmentDetails[apartmentId] = apartment;\r\n        apartmentTransactions[transactionId] = transaction;\r\n    }\r\n\r\n    function updateApartment(uint32 _apartmentId, address _tenant) public {\r\n        require(msg.sender == apartmentDetails[_apartmentId].owner);\r\n        apartmentDetails[_apartmentId].tenant = _tenant;\r\n        apartmentDetails[_apartmentId].isRented = true;\r\n        rentedApartments[_tenant].push(_apartmentId);\r\n        createTransaction(_apartmentId, \"The owner approved the rent.\");\r\n        emit PaymentApproved(msg.sender, _tenant);\r\n    }\r\n\r\n    function createTransaction(uint32 _apartmentId, string _transactionMessage) public {\r\n        uint32 transactionId = getId();\r\n        ApartmentTransaction memory transaction = ApartmentTransaction(transactionId, _apartmentId, _transactionMessage, now);\r\n        apartmentTransactionMappings[_apartmentId].push(transactionId);\r\n        apartmentTransactions[transactionId] = transaction;\r\n    }\r\n\r\n    function getRentedApartments() public view returns(uint32[]) {\r\n        return rentedApartments[msg.sender];\r\n    }\r\n\r\n    function getApartments() public view returns(uint32[]) {\r\n        return apartments[msg.sender];\r\n    }\r\n    \r\n    function getTransactionIds(uint32 apartmentId) public view returns(uint32[]) {\r\n        return apartmentTransactionMappings[apartmentId];\r\n    }\r\n\r\n    function getTransactionById(uint32 transactionId) public view returns(uint32 _id, uint32 _apartmentId, string _message, uint _timestamp) {\r\n        ApartmentTransaction storage t = apartmentTransactions[transactionId];\r\n        return (t.id, t.apartmentId, t.message, t.timestamp);\r\n    }\r\n\r\n    function getApartmentById(uint32 apartmentId) public view returns(uint32 _id, address _owner, address _tenant,\r\n        uint32 _postCode, string _city, string _street,\r\n        uint32 _houseNumber, uint32 _floor, string _description, uint32 _rent, uint32 _deposit, bool _isRented) {\r\n        ApartmentDetails storage a = apartmentDetails[apartmentId];\r\n        return (a.id, a.owner, a.tenant, a.postCode, a.city, a.street, a.houseNumber, a.floor, a.description, a.rent, a.deposit, a.isRented);\r\n    }\r\n\r\n    function firePayment(address _to, string _username, uint32 _value) public {\r\n        emit PaymentReceived(msg.sender, _to, _username, _value);\r\n    }\r\n\r\n    function fireRentPaid(address _to, string _username) public {\r\n        emit RentPaid(msg.sender, _to, _username);\r\n    }\r\n\r\n    function fireIssueCreated(address _to, string _username) public {\r\n        emit IssueCreated(msg.sender, _to, _username);\r\n    }\r\n\r\n    function terminateContract(uint32 _apartmentId, address _owner, string _message) public {\r\n        require(msg.sender == apartmentDetails[_apartmentId].tenant);\r\n        apartmentDetails[_apartmentId].tenant = address(0);\r\n        apartmentDetails[_apartmentId].isRented = false;\r\n        uint32[] memory _apartments = rentedApartments[msg.sender];\r\n        uint _apartmentIndex;\r\n        for (uint i = 0; i < _apartments.length; i++) {\r\n            if (_apartments[i] == _apartmentId) {\r\n                _apartmentIndex = i;\r\n            }\r\n        }\r\n        rentedApartments[msg.sender] = remove(_apartments, _apartmentIndex);\r\n        createTransaction(_apartmentId, _message);\r\n        emit ContractTerminated(msg.sender, _owner, _message);\r\n    }\r\n\r\n    function remove(uint32[] array, uint index) internal pure returns(uint32[] value) {\r\n        if (index >= array.length) return;\r\n\r\n        uint32[] memory arrayNew = new uint32[](array.length-1);\r\n        for (uint i = 0; i<arrayNew.length; i++){\r\n            if(i != index && i<index){\r\n                arrayNew[i] = array[i];\r\n            } else {\r\n                arrayNew[i] = array[i+1];\r\n            }\r\n        }\r\n        delete array;\r\n        return arrayNew;\r\n    }\r\n}",
  "sourcePath": "C:\\Users\\david.munkacsi\\smart-renting\\ethereum\\contracts\\Apartment.sol",
  "compiler": {
    "name": "solc",
    "version": "0.4.24+commit.e67f0147.Emscripten.clang"
  },
  "schemaVersion": "2.0.0",
  "updatedAt": "2018-07-07T17:34:39.773Z"
}