{
  "contractName": "Apartment",
  "abi": [
    {
      "inputs": [],
      "payable": false,
      "stateMutability": "nonpayable",
      "type": "constructor"
    },
    {
      "constant": false,
      "inputs": [
        {
          "name": "_message",
          "type": "string"
        },
        {
          "name": "_hashedTimestamp",
          "type": "string"
        }
      ],
      "name": "createApartmentTransaction",
      "outputs": [],
      "payable": false,
      "stateMutability": "nonpayable",
      "type": "function"
    },
    {
      "constant": true,
      "inputs": [
        {
          "name": "_transactionId",
          "type": "string"
        },
        {
          "name": "_message",
          "type": "string"
        }
      ],
      "name": "verifyTransaction",
      "outputs": [
        {
          "name": "",
          "type": "bool"
        }
      ],
      "payable": false,
      "stateMutability": "view",
      "type": "function"
    },
    {
      "constant": false,
      "inputs": [
        {
          "name": "_id",
          "type": "string"
        },
        {
          "name": "_rent",
          "type": "uint256"
        }
      ],
      "name": "createRent",
      "outputs": [],
      "payable": false,
      "stateMutability": "nonpayable",
      "type": "function"
    },
    {
      "constant": true,
      "inputs": [
        {
          "name": "_id",
          "type": "string"
        }
      ],
      "name": "getRent",
      "outputs": [
        {
          "name": "",
          "type": "uint256"
        }
      ],
      "payable": false,
      "stateMutability": "view",
      "type": "function"
    },
    {
      "constant": false,
      "inputs": [
        {
          "name": "_id",
          "type": "string"
        },
        {
          "name": "_deposit",
          "type": "uint256"
        }
      ],
      "name": "createDeposit",
      "outputs": [],
      "payable": false,
      "stateMutability": "nonpayable",
      "type": "function"
    },
    {
      "constant": false,
      "inputs": [
        {
          "name": "_to",
          "type": "address"
        },
        {
          "name": "_id",
          "type": "string"
        }
      ],
      "name": "payRent",
      "outputs": [],
      "payable": true,
      "stateMutability": "payable",
      "type": "function"
    },
    {
      "constant": false,
      "inputs": [
        {
          "name": "_to",
          "type": "address"
        },
        {
          "name": "_id",
          "type": "string"
        }
      ],
      "name": "payDeposit",
      "outputs": [],
      "payable": true,
      "stateMutability": "payable",
      "type": "function"
    }
  ],
  "bytecode": "0x608060405234801561001057600080fd5b50610926806100206000396000f300608060405260043610610083576000357c0100000000000000000000000000000000000000000000000000000000900463ffffffff16806313b4d247146100885780631740d803146100fb5780632badd4b7146101c25780633a753915146102355780633c6c0fde146102b1578063873612571461032e578063fa310f60146103aa575b600080fd5b34801561009457600080fd5b506100f9600480360381019080803590602001908201803590602001908080601f016020809104026020016040519081016040528093929190818152602001838380828437820191505050505050919291929080359060200190929190505050610459565b005b34801561010757600080fd5b506101a8600480360381019080803590602001908201803590602001908080601f0160208091040260200160405190810160405280939291908181526020018383808284378201915050505050509192919290803590602001908201803590602001908080601f01602080910402602001604051908101604052809392919081815260200183838082843782019150505050505091929192905050506104cd565b604051808215151515815260200191505060405180910390f35b3480156101ce57600080fd5b50610233600480360381019080803590602001908201803590602001908080601f0160208091040260200160405190810160405280939291908181526020018383808284378201915050505050509192919290803590602001909291905050506105af565b005b6102af600480360381019080803573ffffffffffffffffffffffffffffffffffffffff169060200190929190803590602001908201803590602001908080601f0160208091040260200160405190810160405280939291908181526020018383808284378201915050505050509192919290505050610623565b005b3480156102bd57600080fd5b50610318600480360381019080803590602001908201803590602001908080601f01602080910402602001604051908101604052809392919081815260200183838082843782019150505050505091929192905050506106e7565b6040518082815260200191505060405180910390f35b6103a8600480360381019080803573ffffffffffffffffffffffffffffffffffffffff169060200190929190803590602001908201803590602001908080601f016020809104026020016040519081016040528093929190818152602001838380828437820191505050505050919291929050505061075c565b005b3480156103b657600080fd5b50610457600480360381019080803590602001908201803590602001908080601f0160208091040260200160405190810160405280939291908181526020018383808284378201915050505050509192919290803590602001908201803590602001908080601f0160208091040260200160405190810160405280939291908181526020018383808284378201915050505050509192919290505050610820565b005b806001836040518082805190602001908083835b602083101515610492578051825260208201915060208101905060208303925061046d565b6001836020036101000a0380198251168184511680821785525050505050509050019150509081526020016040518091039020819055505050565b6000816040518082805190602001908083835b60208310151561050557805182526020820191506020810190506020830392506104e0565b6001836020036101000a0380198251168184511680821785525050505050509050019150506040518091039020600019166000846040518082805190602001908083835b60208310151561056e5780518252602082019150602081019050602083039250610549565b6001836020036101000a0380198251168184511680821785525050505050509050019150509081526020016040518091039020546000191614905092915050565b806002836040518082805190602001908083835b6020831015156105e857805182526020820191506020810190506020830392506105c3565b6001836020036101000a0380198251168184511680821785525050505050509050019150509081526020016040518091039020819055505050565b6002816040518082805190602001908083835b60208310151561065b5780518252602082019150602081019050602083039250610636565b6001836020036101000a0380198251168184511680821785525050505050509050019150509081526020016040518091039020543414151561069c57600080fd5b8173ffffffffffffffffffffffffffffffffffffffff166108fc349081150290604051600060405180830381858888f193505050501580156106e2573d6000803e3d6000fd5b505050565b60006002826040518082805190602001908083835b60208310151561072157805182526020820191506020810190506020830392506106fc565b6001836020036101000a0380198251168184511680821785525050505050509050019150509081526020016040518091039020549050919050565b6001816040518082805190602001908083835b602083101515610794578051825260208201915060208101905060208303925061076f565b6001836020036101000a038019825116818451168082178552505050505050905001915050908152602001604051809103902054341415156107d557600080fd5b8173ffffffffffffffffffffffffffffffffffffffff166108fc349081150290604051600060405180830381858888f1935050505015801561081b573d6000803e3d6000fd5b505050565b816040518082805190602001908083835b6020831015156108565780518252602082019150602081019050602083039250610831565b6001836020036101000a03801982511681845116808217855250505050505090500191505060405180910390206000826040518082805190602001908083835b6020831015156108bb5780518252602082019150602081019050602083039250610896565b6001836020036101000a0380198251168184511680821785525050505050509050019150509081526020016040518091039020816000191690555050505600a165627a7a723058203808d01aa35da312a53988b34b93d957d7f7b976cb84e7d68db8e3b0c676a8600029",
  "source": "pragma solidity ^0.4.23;\r\n\r\ncontract Apartment {\r\n    // Note: the current ABI version does not support the receiving and sending of objects (structs),\r\n    // so for the proof of concept part we just store transaction string.\r\n    mapping(string => bytes32) apartmentTransactions;\r\n    mapping(string => uint) requiredDeposits;\r\n    mapping(string => uint) requiredRents;\r\n\r\n    constructor() public {\r\n    }\r\n\r\n    function createApartmentTransaction(string _message, string _hashedTimestamp) public {\r\n        apartmentTransactions[_hashedTimestamp] = keccak256(_message);\r\n    }\r\n\r\n    function verifyTransaction(string _transactionId, string _message) public view returns(bool) {\r\n        return apartmentTransactions[_transactionId] == keccak256(_message);\r\n    }\r\n\r\n    function createRent(string _id, uint _rent) public {\r\n        requiredRents[_id] = _rent;\r\n    }\r\n\r\n    function getRent(string _id) public view returns(uint) {\r\n        return requiredRents[_id];\r\n    }\r\n\r\n    function createDeposit(string _id, uint _deposit) public {\r\n        requiredDeposits[_id] = _deposit;\r\n    }\r\n\r\n    function payRent(address _to, string _id) public payable {\r\n        require(msg.value == requiredRents[_id]);\r\n        _to.transfer(msg.value);\r\n    }\r\n\r\n    function payDeposit(address _to, string _id) public payable {\r\n        require(msg.value == requiredDeposits[_id]);\r\n        _to.transfer(msg.value);\r\n    }\r\n}",
  "sourcePath": "C:\\Users\\david.munkacsi\\smart-renting\\ethereum\\contracts\\Apartment.sol",
  "compiler": {
    "name": "solc",
    "version": "0.4.24+commit.e67f0147.Emscripten.clang"
  },
  "schemaVersion": "2.0.0",
  "updatedAt": "2018-07-01T19:53:51.637Z"
}