{
  "contractName": "Apartment",
  "abi": [
    {
      "inputs": [],
      "payable": false,
      "stateMutability": "nonpayable",
      "type": "constructor"
    },
    {
      "constant": false,
      "inputs": [],
      "name": "getId",
      "outputs": [
        {
          "name": "",
          "type": "uint32"
        }
      ],
      "payable": false,
      "stateMutability": "nonpayable",
      "type": "function"
    },
    {
      "constant": false,
      "inputs": [
        {
          "name": "_postCode",
          "type": "uint32"
        },
        {
          "name": "_city",
          "type": "string"
        },
        {
          "name": "_street",
          "type": "string"
        },
        {
          "name": "_houseNumber",
          "type": "uint32"
        },
        {
          "name": "_floor",
          "type": "uint32"
        },
        {
          "name": "_description",
          "type": "string"
        },
        {
          "name": "_rent",
          "type": "uint32"
        },
        {
          "name": "_deposit",
          "type": "uint32"
        },
        {
          "name": "_transactionMessage",
          "type": "string"
        }
      ],
      "name": "createApartment",
      "outputs": [],
      "payable": false,
      "stateMutability": "nonpayable",
      "type": "function"
    },
    {
      "constant": true,
      "inputs": [],
      "name": "getApartments",
      "outputs": [
        {
          "name": "",
          "type": "uint32[]"
        }
      ],
      "payable": false,
      "stateMutability": "view",
      "type": "function"
    }
  ],
  "bytecode": "0x608060405260008060006101000a81548163ffffffff021916908363ffffffff16021790555034801561003157600080fd5b506109e7806100416000396000f300608060405260043610610057576000357c0100000000000000000000000000000000000000000000000000000000900463ffffffff1680635d1ca6311461005c578063b1c9809914610093578063c05db1fa146100ff575b600080fd5b34801561006857600080fd5b5061007161028a565b604051808263ffffffff1663ffffffff16815260200191505060405180910390f35b34801561009f57600080fd5b506100a86102ca565b6040518080602001828103825283818151815260200191508051906020019060200280838360005b838110156100eb5780820151818401526020810190506100d0565b505050509050019250505060405180910390f35b34801561010b57600080fd5b50610288600480360381019080803563ffffffff169060200190929190803590602001908201803590602001908080601f0160208091040260200160405190810160405280939291908181526020018383808284378201915050505050509192919290803590602001908201803590602001908080601f0160208091040260200160405190810160405280939291908181526020018383808284378201915050505050509192919290803563ffffffff169060200190929190803563ffffffff169060200190929190803590602001908201803590602001908080601f0160208091040260200160405190810160405280939291908181526020018383808284378201915050505050509192919290803563ffffffff169060200190929190803563ffffffff169060200190929190803590602001908201803590602001908080601f016020809104026020016040519081016040528093929190818152602001838380828437820191505050505050919291929050505061038b565b005b600080600081819054906101000a900463ffffffff168092919060010191906101000a81548163ffffffff021916908363ffffffff160217905550905090565b6060600160003373ffffffffffffffffffffffffffffffffffffffff1673ffffffffffffffffffffffffffffffffffffffff16815260200190815260200160002080548060200260200160405190810160405280929190818152602001828054801561038157602002820191906000526020600020906000905b82829054906101000a900463ffffffff1663ffffffff16815260200190600401906020826003010492830192600103820291508084116103445790505b5050505050905090565b600080610396610834565b61039e6108e8565b6103a661028a565b93506103b061028a565b9250610180604051908101604052808563ffffffff1681526020013373ffffffffffffffffffffffffffffffffffffffff168152602001600073ffffffffffffffffffffffffffffffffffffffff1681526020018e63ffffffff1681526020018d81526020018c81526020018b63ffffffff1681526020018a63ffffffff1681526020018981526020018863ffffffff1681526020018763ffffffff1681526020016000151581525091506060604051908101604052808463ffffffff1681526020018563ffffffff168152602001868152509050600160003373ffffffffffffffffffffffffffffffffffffffff1673ffffffffffffffffffffffffffffffffffffffff16815260200190815260200160002084908060018154018082558091505090600182039060005260206000209060089182820401919006600402909192909190916101000a81548163ffffffff021916908363ffffffff16021790555050600360008563ffffffff1663ffffffff16815260200190815260200160002083908060018154018082558091505090600182039060005260206000209060089182820401919006600402909192909190916101000a81548163ffffffff021916908363ffffffff1602179055505081600260008663ffffffff1663ffffffff16815260200190815260200160002060008201518160000160006101000a81548163ffffffff021916908363ffffffff16021790555060208201518160000160046101000a81548173ffffffffffffffffffffffffffffffffffffffff021916908373ffffffffffffffffffffffffffffffffffffffff16021790555060408201518160010160006101000a81548173ffffffffffffffffffffffffffffffffffffffff021916908373ffffffffffffffffffffffffffffffffffffffff16021790555060608201518160010160146101000a81548163ffffffff021916908363ffffffff1602179055506080820151816002019080519060200190610699929190610916565b5060a08201518160030190805190602001906106b6929190610916565b5060c08201518160040160006101000a81548163ffffffff021916908363ffffffff16021790555060e08201518160040160046101000a81548163ffffffff021916908363ffffffff160217905550610100820151816005019080519060200190610722929190610916565b506101208201518160060160006101000a81548163ffffffff021916908363ffffffff1602179055506101408201518160060160046101000a81548163ffffffff021916908363ffffffff1602179055506101608201518160060160086101000a81548160ff02191690831515021790555090505080600460008563ffffffff1663ffffffff16815260200190815260200160002060008201518160000160006101000a81548163ffffffff021916908363ffffffff16021790555060208201518160000160046101000a81548163ffffffff021916908363ffffffff1602179055506040820151816001019080519060200190610821929190610916565b5090505050505050505050505050505050565b61018060405190810160405280600063ffffffff168152602001600073ffffffffffffffffffffffffffffffffffffffff168152602001600073ffffffffffffffffffffffffffffffffffffffff168152602001600063ffffffff1681526020016060815260200160608152602001600063ffffffff168152602001600063ffffffff16815260200160608152602001600063ffffffff168152602001600063ffffffff1681526020016000151581525090565b606060405190810160405280600063ffffffff168152602001600063ffffffff168152602001606081525090565b828054600181600116156101000203166002900490600052602060002090601f016020900481019282601f1061095757805160ff1916838001178555610985565b82800160010185558215610985579182015b82811115610984578251825591602001919060010190610969565b5b5090506109929190610996565b5090565b6109b891905b808211156109b457600081600090555060010161099c565b5090565b905600a165627a7a723058203b15d69e82b4803d3ba08467b75a64cdfe6d3ab1b469590aec6668b85ad021060029",
  "source": "pragma solidity ^0.4.23;\r\n\r\ncontract Apartment {\r\n    uint32 private counter = 0;\r\n    mapping(address => uint32[]) apartments;\r\n    mapping(uint32 => ApartmentDetails) apartmentDetails;\r\n    mapping(uint32 => uint32[]) apartmentTransactionMappings;\r\n    mapping(uint32 => ApartmentTransaction) apartmentTransactions;\r\n\r\n    constructor() public {\r\n    }\r\n\r\n    struct ApartmentTransaction {\r\n        uint32 id;\r\n        uint32 apartmentId;\r\n        string message;\r\n    }\r\n\r\n    struct ApartmentDetails {\r\n        uint32 id;\r\n        address owner;\r\n        address tenant;\r\n        uint32 postCode;\r\n        string city;\r\n        string street;\r\n        uint32 houseNumber;\r\n        uint32 floor;\r\n        string description;\r\n        uint32 rent;\r\n        uint32 deposit;\r\n        bool isRented;\r\n    }\r\n\r\n    function getId() public returns(uint32) {\r\n        return counter++;\r\n    }\r\n\r\n    function createApartment(uint32 _postCode, string _city, string _street,\r\n            uint32 _houseNumber, uint32 _floor, string _description, uint32 _rent, uint32 _deposit, string _transactionMessage) public {\r\n        uint32 apartmentId = getId();\r\n        uint32 transactionId = getId();\r\n        ApartmentDetails memory apartment = ApartmentDetails(apartmentId, msg.sender, address(0),\r\n            _postCode, _city, _street, _houseNumber, _floor, _description, _rent, _deposit, false);\r\n        ApartmentTransaction memory transaction = ApartmentTransaction(transactionId, apartmentId, _transactionMessage);\r\n\r\n        apartments[msg.sender].push(apartmentId);\r\n        apartmentTransactionMappings[apartmentId].push(transactionId);\r\n        apartmentDetails[apartmentId] = apartment;\r\n        apartmentTransactions[transactionId] = transaction;\r\n    }\r\n\r\n    function getApartments() public view returns(uint32[]) {\r\n        return apartments[msg.sender];\r\n    }\r\n}",
  "sourcePath": "C:\\Users\\david.munkacsi\\smart-renting\\ethereum\\contracts\\Apartment.sol",
  "compiler": {
    "name": "solc",
    "version": "0.4.24+commit.e67f0147.Emscripten.clang"
  },
  "schemaVersion": "2.0.0",
  "updatedAt": "2018-07-02T19:21:14.574Z"
}