{
  "contractName": "User",
  "abi": [
    {
      "anonymous": false,
      "inputs": [
        {
          "indexed": false,
          "name": "from",
          "type": "address"
        },
        {
          "indexed": false,
          "name": "to",
          "type": "address"
        },
        {
          "indexed": false,
          "name": "username",
          "type": "string"
        },
        {
          "indexed": false,
          "name": "message",
          "type": "string"
        }
      ],
      "name": "MessageSent",
      "type": "event"
    },
    {
      "constant": false,
      "inputs": [
        {
          "name": "_username",
          "type": "string"
        },
        {
          "name": "_password",
          "type": "string"
        }
      ],
      "name": "createUser",
      "outputs": [],
      "payable": false,
      "stateMutability": "nonpayable",
      "type": "function"
    },
    {
      "constant": true,
      "inputs": [],
      "name": "isAccountTaken",
      "outputs": [
        {
          "name": "",
          "type": "bool"
        }
      ],
      "payable": false,
      "stateMutability": "view",
      "type": "function"
    },
    {
      "constant": true,
      "inputs": [],
      "name": "getUsername",
      "outputs": [
        {
          "name": "",
          "type": "string"
        }
      ],
      "payable": false,
      "stateMutability": "view",
      "type": "function"
    },
    {
      "constant": true,
      "inputs": [
        {
          "name": "_password",
          "type": "string"
        }
      ],
      "name": "authenticate",
      "outputs": [
        {
          "name": "",
          "type": "bool"
        }
      ],
      "payable": false,
      "stateMutability": "view",
      "type": "function"
    },
    {
      "constant": false,
      "inputs": [
        {
          "name": "_to",
          "type": "address"
        },
        {
          "name": "_username",
          "type": "string"
        },
        {
          "name": "_message",
          "type": "string"
        }
      ],
      "name": "sendMessage",
      "outputs": [],
      "payable": false,
      "stateMutability": "nonpayable",
      "type": "function"
    }
  ],
  "bytecode": "0x608060405234801561001057600080fd5b506108b7806100206000396000f30060806040526004361061006d576000357c0100000000000000000000000000000000000000000000000000000000900463ffffffff168063681f3e6d146100725780636b18853e146101025780636fb6df431461013157806387b162b514610200578063aa613b29146102af575b600080fd5b34801561007e57600080fd5b50610087610330565b6040518080602001828103825283818151815260200191508051906020019080838360005b838110156100c75780820151818401526020810190506100ac565b50505050905090810190601f1680156100f45780820380516001836020036101000a031916815260200191505b509250505060405180910390f35b34801561010e57600080fd5b5061011761040f565b604051808215151515815260200191505060405180910390f35b34801561013d57600080fd5b506101fe600480360381019080803573ffffffffffffffffffffffffffffffffffffffff169060200190929190803590602001908201803590602001908080601f0160208091040260200160405190810160405280939291908181526020018383808284378201915050505050509192919290803590602001908201803590602001908080601f0160208091040260200160405190810160405280939291908181526020018383808284378201915050505050509192919290505050610462565b005b34801561020c57600080fd5b506102ad600480360381019080803590602001908201803590602001908080601f0160208091040260200160405190810160405280939291908181526020018383808284378201915050505050509192919290803590602001908201803590602001908080601f01602080910402602001604051908101604052809392919081815260200183838082843782019150505050505091929192905050506105d8565b005b3480156102bb57600080fd5b50610316600480360381019080803590602001908201803590602001908080601f0160208091040260200160405190810160405280939291908181526020018383808284378201915050505050509192919290505050610731565b604051808215151515815260200191505060405180910390f35b6060600260003373ffffffffffffffffffffffffffffffffffffffff1673ffffffffffffffffffffffffffffffffffffffff1681526020019081526020016000208054600181600116156101000203166002900480601f0160208091040260200160405190810160405280929190818152602001828054600181600116156101000203166002900480156104055780601f106103da57610100808354040283529160200191610405565b820191906000526020600020905b8154815290600101906020018083116103e857829003601f168201915b5050505050905090565b60008060003373ffffffffffffffffffffffffffffffffffffffff1673ffffffffffffffffffffffffffffffffffffffff16815260200190815260200160002060009054906101000a900460ff16905090565b7fff16ce16dda4a73af168eb84b4c15c1db9e726f884df6ca1d2e82180996dddbf33848484604051808573ffffffffffffffffffffffffffffffffffffffff1673ffffffffffffffffffffffffffffffffffffffff1681526020018473ffffffffffffffffffffffffffffffffffffffff1673ffffffffffffffffffffffffffffffffffffffff1681526020018060200180602001838103835285818151815260200191508051906020019080838360005b8381101561052f578082015181840152602081019050610514565b50505050905090810190601f16801561055c5780820380516001836020036101000a031916815260200191505b50838103825284818151815260200191508051906020019080838360005b8381101561059557808201518184015260208101905061057a565b50505050905090810190601f1680156105c25780820380516001836020036101000a031916815260200191505b50965050505050505060405180910390a1505050565b60016000803373ffffffffffffffffffffffffffffffffffffffff1673ffffffffffffffffffffffffffffffffffffffff16815260200190815260200160002060006101000a81548160ff02191690831515021790555081600260003373ffffffffffffffffffffffffffffffffffffffff1673ffffffffffffffffffffffffffffffffffffffff16815260200190815260200160002090805190602001906106829291906107e6565b50806040518082805190602001908083835b6020831015156106b95780518252602082019150602081019050602083039250610694565b6001836020036101000a0380198251168184511680821785525050505050509050019150506040518091039020600160003373ffffffffffffffffffffffffffffffffffffffff1673ffffffffffffffffffffffffffffffffffffffff16815260200190815260200160002081600019169055505050565b6000816040518082805190602001908083835b6020831015156107695780518252602082019150602081019050602083039250610744565b6001836020036101000a038019825116818451168082178552505050505050905001915050604051809103902060001916600160003373ffffffffffffffffffffffffffffffffffffffff1673ffffffffffffffffffffffffffffffffffffffff1681526020019081526020016000205460001916149050919050565b828054600181600116156101000203166002900490600052602060002090601f016020900481019282601f1061082757805160ff1916838001178555610855565b82800160010185558215610855579182015b82811115610854578251825591602001919060010190610839565b5b5090506108629190610866565b5090565b61088891905b8082111561088457600081600090555060010161086c565b5090565b905600a165627a7a72305820d774a6feff7aca1eb79601d338e74ae0eb58563c46c4a513ee444e3011aa4ab50029",
  "source": "pragma solidity ^0.4.23;\r\n\r\ncontract User {\r\n    mapping (address => bool) accountTaken;\r\n    mapping (address => bytes32) accountPassword;\r\n    mapping (address => string) accountUsername;\r\n\r\n    event MessageSent(\r\n        address from,\r\n        address to,\r\n        string username,\r\n        string message\r\n    );\r\n\r\n    function createUser(string _username, string _password) public {\r\n        accountTaken[msg.sender] = true;\r\n        accountUsername[msg.sender] = _username;\r\n        accountPassword[msg.sender] = keccak256(_password);\r\n    }\r\n\r\n    function isAccountTaken() public view returns(bool) {\r\n        return accountTaken[msg.sender];\r\n    }\r\n\r\n    function getUsername() public view returns(string) {\r\n        return accountUsername[msg.sender];\r\n    }\r\n\r\n    function authenticate(string _password) public view returns (bool) {\r\n        return accountPassword[msg.sender] == keccak256(_password);\r\n    }\r\n\r\n    function sendMessage(address _to, string _username, string _message) public {\r\n        emit MessageSent(msg.sender, _to, _username, _message);\r\n    }\r\n}",
  "sourcePath": "C:\\Users\\david.munkacsi\\smart-renting\\ethereum\\contracts\\User.sol",
  "compiler": {
    "name": "solc",
    "version": "0.4.24+commit.e67f0147.Emscripten.clang"
  },
  "schemaVersion": "2.0.1",
  "updatedAt": "2018-07-02T23:12:29.217Z"
}