{
  "contractName": "Apartment",
  "abi": [
    {
      "inputs": [],
      "payable": false,
      "stateMutability": "nonpayable",
      "type": "constructor"
    },
    {
      "constant": false,
      "inputs": [
        {
          "name": "_message",
          "type": "string"
        },
        {
          "name": "_hashedTimestamp",
          "type": "string"
        }
      ],
      "name": "createApartmentTransaction",
      "outputs": [],
      "payable": false,
      "stateMutability": "nonpayable",
      "type": "function"
    },
    {
      "constant": true,
      "inputs": [
        {
          "name": "_transactionId",
          "type": "string"
        },
        {
          "name": "_message",
          "type": "string"
        }
      ],
      "name": "verifyTransaction",
      "outputs": [
        {
          "name": "",
          "type": "bool"
        }
      ],
      "payable": false,
      "stateMutability": "view",
      "type": "function"
    },
    {
      "constant": false,
      "inputs": [
        {
          "name": "_id",
          "type": "string"
        },
        {
          "name": "_rent",
          "type": "uint256"
        }
      ],
      "name": "createRent",
      "outputs": [],
      "payable": false,
      "stateMutability": "nonpayable",
      "type": "function"
    },
    {
      "constant": true,
      "inputs": [
        {
          "name": "_id",
          "type": "string"
        }
      ],
      "name": "getRent",
      "outputs": [
        {
          "name": "",
          "type": "uint256"
        }
      ],
      "payable": false,
      "stateMutability": "view",
      "type": "function"
    },
    {
      "constant": false,
      "inputs": [
        {
          "name": "_id",
          "type": "string"
        },
        {
          "name": "_deposit",
          "type": "uint256"
        }
      ],
      "name": "createDeposit",
      "outputs": [],
      "payable": false,
      "stateMutability": "nonpayable",
      "type": "function"
    },
    {
      "constant": false,
      "inputs": [
        {
          "name": "_to",
          "type": "address"
        }
      ],
      "name": "payRent",
      "outputs": [],
      "payable": true,
      "stateMutability": "payable",
      "type": "function"
    },
    {
      "constant": false,
      "inputs": [
        {
          "name": "_to",
          "type": "address"
        }
      ],
      "name": "payDeposit",
      "outputs": [],
      "payable": true,
      "stateMutability": "payable",
      "type": "function"
    }
  ],
  "bytecode": "0x608060405234801561001057600080fd5b506107a6806100206000396000f300608060405260043610610083576000357c0100000000000000000000000000000000000000000000000000000000900463ffffffff16806313b4d247146100885780631740d803146100fb5780632badd4b7146101c25780633c6c0fde1461023557806359f3ef05146102b2578063dc40bcbb146102e8578063fa310f601461031e575b600080fd5b34801561009457600080fd5b506100f9600480360381019080803590602001908201803590602001908080601f0160208091040260200160405190810160405280939291908181526020018383808284378201915050505050509192919290803590602001909291905050506103cd565b005b34801561010757600080fd5b506101a8600480360381019080803590602001908201803590602001908080601f0160208091040260200160405190810160405280939291908181526020018383808284378201915050505050509192919290803590602001908201803590602001908080601f0160208091040260200160405190810160405280939291908181526020018383808284378201915050505050509192919290505050610441565b604051808215151515815260200191505060405180910390f35b3480156101ce57600080fd5b50610233600480360381019080803590602001908201803590602001908080601f016020809104026020016040519081016040528093929190818152602001838380828437820191505050505050919291929080359060200190929190505050610523565b005b34801561024157600080fd5b5061029c600480360381019080803590602001908201803590602001908080601f0160208091040260200160405190810160405280939291908181526020018383808284378201915050505050509192919290505050610597565b6040518082815260200191505060405180910390f35b6102e6600480360381019080803573ffffffffffffffffffffffffffffffffffffffff16906020019092919050505061060c565b005b61031c600480360381019080803573ffffffffffffffffffffffffffffffffffffffff169060200190929190505050610656565b005b34801561032a57600080fd5b506103cb600480360381019080803590602001908201803590602001908080601f0160208091040260200160405190810160405280939291908181526020018383808284378201915050505050509192919290803590602001908201803590602001908080601f01602080910402602001604051908101604052809392919081815260200183838082843782019150505050505091929192905050506106a0565b005b806001836040518082805190602001908083835b60208310151561040657805182526020820191506020810190506020830392506103e1565b6001836020036101000a0380198251168184511680821785525050505050509050019150509081526020016040518091039020819055505050565b6000816040518082805190602001908083835b6020831015156104795780518252602082019150602081019050602083039250610454565b6001836020036101000a0380198251168184511680821785525050505050509050019150506040518091039020600019166000846040518082805190602001908083835b6020831015156104e257805182526020820191506020810190506020830392506104bd565b6001836020036101000a0380198251168184511680821785525050505050509050019150509081526020016040518091039020546000191614905092915050565b806002836040518082805190602001908083835b60208310151561055c5780518252602082019150602081019050602083039250610537565b6001836020036101000a0380198251168184511680821785525050505050509050019150509081526020016040518091039020819055505050565b60006002826040518082805190602001908083835b6020831015156105d157805182526020820191506020810190506020830392506105ac565b6001836020036101000a0380198251168184511680821785525050505050509050019150509081526020016040518091039020549050919050565b8073ffffffffffffffffffffffffffffffffffffffff166108fc349081150290604051600060405180830381858888f19350505050158015610652573d6000803e3d6000fd5b5050565b8073ffffffffffffffffffffffffffffffffffffffff166108fc349081150290604051600060405180830381858888f1935050505015801561069c573d6000803e3d6000fd5b5050565b816040518082805190602001908083835b6020831015156106d657805182526020820191506020810190506020830392506106b1565b6001836020036101000a03801982511681845116808217855250505050505090500191505060405180910390206000826040518082805190602001908083835b60208310151561073b5780518252602082019150602081019050602083039250610716565b6001836020036101000a0380198251168184511680821785525050505050509050019150509081526020016040518091039020816000191690555050505600a165627a7a72305820136cca3319c05a5cbf243283cdba5574ef31f5583d1e931b3d50f61d0b2a93510029",
  "source": "pragma solidity ^0.4.23;\r\n\r\ncontract Apartment {\r\n    // Note: the current ABI version does not support the receiving and sending of objects (structs),\r\n    // so for the proof of concept part we just store transaction string.\r\n    mapping(string => bytes32) apartmentTransactions;\r\n    mapping(string => uint) requiredDeposits;\r\n    mapping(string => uint) requiredRents;\r\n\r\n    constructor() public {\r\n    }\r\n\r\n    function createApartmentTransaction(string _message, string _hashedTimestamp) public {\r\n        apartmentTransactions[_hashedTimestamp] = keccak256(_message);\r\n    }\r\n\r\n    function verifyTransaction(string _transactionId, string _message) public view returns(bool) {\r\n        return apartmentTransactions[_transactionId] == keccak256(_message);\r\n    }\r\n\r\n    function createRent(string _id, uint _rent) public {\r\n        requiredRents[_id] = _rent;\r\n    }\r\n\r\n    function getRent(string _id) public view returns(uint) {\r\n        return requiredRents[_id];\r\n    }\r\n\r\n    function createDeposit(string _id, uint _deposit) public {\r\n        requiredDeposits[_id] = _deposit;\r\n    }\r\n\r\n    function payRent(address _to) public payable {\r\n        // require(msg.value == requiredRents[_id]);\r\n        _to.transfer(msg.value);\r\n    }\r\n\r\n    function payDeposit(address _to) public payable {\r\n        // require(msg.value == requiredDeposits[_id]);\r\n        _to.transfer(msg.value);\r\n    }\r\n}",
  "sourcePath": "C:\\Users\\david.munkacsi\\smart-renting\\ethereum\\contracts\\Apartment.sol",
  "compiler": {
    "name": "solc",
    "version": "0.4.24+commit.e67f0147.Emscripten.clang"
  },
  "schemaVersion": "2.0.0",
  "updatedAt": "2018-07-02T18:18:24.631Z"
}