{
  "contractName": "Apartment",
  "abi": [
    {
      "inputs": [],
      "payable": false,
      "stateMutability": "nonpayable",
      "type": "constructor"
    },
    {
      "constant": false,
      "inputs": [
        {
          "name": "_id",
          "type": "string"
        },
        {
          "name": "_deposit",
          "type": "uint256"
        },
        {
          "name": "_rent",
          "type": "uint256"
        }
      ],
      "name": "createApartmentDetail",
      "outputs": [],
      "payable": true,
      "stateMutability": "payable",
      "type": "function"
    },
    {
      "constant": false,
      "inputs": [
        {
          "name": "to",
          "type": "address"
        }
      ],
      "name": "payRent",
      "outputs": [],
      "payable": true,
      "stateMutability": "payable",
      "type": "function"
    },
    {
      "constant": false,
      "inputs": [
        {
          "name": "to",
          "type": "address"
        }
      ],
      "name": "payDeposit",
      "outputs": [],
      "payable": true,
      "stateMutability": "payable",
      "type": "function"
    }
  ],
  "bytecode": "0x608060405234801561001057600080fd5b50610422806100206000396000f300608060405260043610610057576000357c0100000000000000000000000000000000000000000000000000000000900463ffffffff16806359f3ef051461005c57806372c42f1414610092578063dc40bcbb14610102575b600080fd5b610090600480360381019080803573ffffffffffffffffffffffffffffffffffffffff169060200190929190505050610138565b005b610100600480360381019080803590602001908201803590602001908080601f01602080910402602001604051908101604052809392919081815260200183838082843782019150505050505091929192908035906020019092919080359060200190929190505050610182565b005b610136600480360381019080803573ffffffffffffffffffffffffffffffffffffffff169060200190929190505050610307565b005b8073ffffffffffffffffffffffffffffffffffffffff166108fc349081150290604051600060405180830381858888f1935050505015801561017e573d6000803e3d6000fd5b5050565b6000803373ffffffffffffffffffffffffffffffffffffffff1673ffffffffffffffffffffffffffffffffffffffff16815260200190815260200160002060a0604051908101604052808581526020013373ffffffffffffffffffffffffffffffffffffffff168152602001600073ffffffffffffffffffffffffffffffffffffffff1681526020018481526020018381525090806001815401808255809150509060018203906000526020600020906005020160009091929091909150600082015181600001908051906020019061025c929190610351565b5060208201518160010160006101000a81548173ffffffffffffffffffffffffffffffffffffffff021916908373ffffffffffffffffffffffffffffffffffffffff16021790555060408201518160020160006101000a81548173ffffffffffffffffffffffffffffffffffffffff021916908373ffffffffffffffffffffffffffffffffffffffff1602179055506060820151816003015560808201518160040155505050505050565b8073ffffffffffffffffffffffffffffffffffffffff166108fc349081150290604051600060405180830381858888f1935050505015801561034d573d6000803e3d6000fd5b5050565b828054600181600116156101000203166002900490600052602060002090601f016020900481019282601f1061039257805160ff19168380011785556103c0565b828001600101855582156103c0579182015b828111156103bf5782518255916020019190600101906103a4565b5b5090506103cd91906103d1565b5090565b6103f391905b808211156103ef5760008160009055506001016103d7565b5090565b905600a165627a7a7230582056cfa734f46d4a5ad1a9f5d7acf9e7c9650e21e683bd6f8314a863e20bf8e5220029",
  "source": "pragma solidity ^0.4.23;\r\n\r\ncontract Apartment {\r\n    mapping(address => ApartmentDetail[]) ownedApartments;\r\n    mapping(address => ApartmentDetail[]) rentedApartments;\r\n\r\n    struct ApartmentDetail {\r\n        string id;\r\n        address owner;\r\n        address tenant;\r\n        uint deposit;\r\n        uint rent;\r\n    }\r\n\r\n    constructor() public {\r\n    }\r\n\r\n\r\n    function createApartmentDetail(string _id, uint _deposit, uint _rent) public payable {\r\n        ownedApartments[msg.sender].push(ApartmentDetail({\r\n            id: _id,\r\n            owner: msg.sender,\r\n            tenant: address(0),\r\n            deposit: _deposit,\r\n            rent: _rent\r\n        }));\r\n    }\r\n\r\n    function payRent(address to) public payable {\r\n        to.transfer(msg.value);\r\n    }\r\n\r\n    function payDeposit(address to) public payable {\r\n        to.transfer(msg.value);\r\n    }\r\n}",
  "sourcePath": "C:\\Users\\david.munkacsi\\smart-renting\\ethereum\\contracts\\Apartment.sol",
  "compiler": {
    "name": "solc",
    "version": "0.4.24+commit.e67f0147.Emscripten.clang"
  },
  "schemaVersion": "2.0.0",
  "updatedAt": "2018-07-01T10:13:03.268Z"
}