{
  "contractName": "Apartment",
  "abi": [
    {
      "inputs": [],
      "payable": false,
      "stateMutability": "nonpayable",
      "type": "constructor"
    },
    {
      "anonymous": false,
      "inputs": [
        {
          "indexed": false,
          "name": "from",
          "type": "address"
        },
        {
          "indexed": false,
          "name": "to",
          "type": "address"
        }
      ],
      "name": "PaymentApproved",
      "type": "event"
    },
    {
      "anonymous": false,
      "inputs": [
        {
          "indexed": false,
          "name": "from",
          "type": "address"
        },
        {
          "indexed": false,
          "name": "to",
          "type": "address"
        },
        {
          "indexed": false,
          "name": "username",
          "type": "string"
        },
        {
          "indexed": false,
          "name": "paymentType",
          "type": "string"
        },
        {
          "indexed": false,
          "name": "value",
          "type": "uint32"
        }
      ],
      "name": "PaymentReceived",
      "type": "event"
    },
    {
      "constant": false,
      "inputs": [
        {
          "name": "_postCode",
          "type": "uint32"
        },
        {
          "name": "_city",
          "type": "string"
        },
        {
          "name": "_street",
          "type": "string"
        },
        {
          "name": "_houseNumber",
          "type": "uint32"
        },
        {
          "name": "_floor",
          "type": "uint32"
        },
        {
          "name": "_description",
          "type": "string"
        },
        {
          "name": "_rent",
          "type": "uint32"
        },
        {
          "name": "_deposit",
          "type": "uint32"
        },
        {
          "name": "_transactionMessage",
          "type": "string"
        }
      ],
      "name": "createApartment",
      "outputs": [],
      "payable": false,
      "stateMutability": "nonpayable",
      "type": "function"
    },
    {
      "constant": false,
      "inputs": [
        {
          "name": "_apartmentId",
          "type": "uint32"
        },
        {
          "name": "_tenant",
          "type": "address"
        }
      ],
      "name": "updateApartment",
      "outputs": [],
      "payable": false,
      "stateMutability": "nonpayable",
      "type": "function"
    },
    {
      "constant": false,
      "inputs": [
        {
          "name": "_apartmentId",
          "type": "uint32"
        },
        {
          "name": "_transactionMessage",
          "type": "string"
        }
      ],
      "name": "createTransaction",
      "outputs": [],
      "payable": false,
      "stateMutability": "nonpayable",
      "type": "function"
    },
    {
      "constant": true,
      "inputs": [],
      "name": "getRentedApartments",
      "outputs": [
        {
          "name": "",
          "type": "uint32[]"
        }
      ],
      "payable": false,
      "stateMutability": "view",
      "type": "function"
    },
    {
      "constant": true,
      "inputs": [],
      "name": "getApartments",
      "outputs": [
        {
          "name": "",
          "type": "uint32[]"
        }
      ],
      "payable": false,
      "stateMutability": "view",
      "type": "function"
    },
    {
      "constant": true,
      "inputs": [
        {
          "name": "apartmentId",
          "type": "uint32"
        }
      ],
      "name": "getTransactionIds",
      "outputs": [
        {
          "name": "",
          "type": "uint32[]"
        }
      ],
      "payable": false,
      "stateMutability": "view",
      "type": "function"
    },
    {
      "constant": true,
      "inputs": [
        {
          "name": "transactionId",
          "type": "uint32"
        }
      ],
      "name": "getTransactionById",
      "outputs": [
        {
          "name": "_id",
          "type": "uint32"
        },
        {
          "name": "_apartmentId",
          "type": "uint32"
        },
        {
          "name": "_message",
          "type": "string"
        },
        {
          "name": "_timestamp",
          "type": "uint256"
        }
      ],
      "payable": false,
      "stateMutability": "view",
      "type": "function"
    },
    {
      "constant": true,
      "inputs": [
        {
          "name": "apartmentId",
          "type": "uint32"
        }
      ],
      "name": "getApartmentById",
      "outputs": [
        {
          "name": "_id",
          "type": "uint32"
        },
        {
          "name": "_owner",
          "type": "address"
        },
        {
          "name": "_tenant",
          "type": "address"
        },
        {
          "name": "_postCode",
          "type": "uint32"
        },
        {
          "name": "_city",
          "type": "string"
        },
        {
          "name": "_street",
          "type": "string"
        },
        {
          "name": "_houseNumber",
          "type": "uint32"
        },
        {
          "name": "_floor",
          "type": "uint32"
        },
        {
          "name": "_description",
          "type": "string"
        },
        {
          "name": "_rent",
          "type": "uint32"
        },
        {
          "name": "_deposit",
          "type": "uint32"
        },
        {
          "name": "_isRented",
          "type": "bool"
        }
      ],
      "payable": false,
      "stateMutability": "view",
      "type": "function"
    },
    {
      "constant": false,
      "inputs": [
        {
          "name": "_to",
          "type": "address"
        },
        {
          "name": "_username",
          "type": "string"
        },
        {
          "name": "_paymentType",
          "type": "string"
        },
        {
          "name": "_value",
          "type": "uint32"
        }
      ],
      "name": "firePayment",
      "outputs": [],
      "payable": false,
      "stateMutability": "nonpayable",
      "type": "function"
    }
  ],
  "bytecode": "0x608060405260008060006101000a81548163ffffffff021916908363ffffffff16021790555034801561003157600080fd5b50611ac6806100416000396000f300608060405260043610610099576000357c0100000000000000000000000000000000000000000000000000000000900463ffffffff168063098b72b51461009e57806359a1dde21461030557806390aae4551461037157806392d65f30146103f9578063a45a181c1461044c578063b1c980991461052b578063b83d481a14610597578063c05db1fa14610610578063e6e45e5f1461079b575b600080fd5b3480156100aa57600080fd5b506100cf600480360381019080803563ffffffff169060200190929190505050610874565b604051808d63ffffffff1663ffffffff1681526020018c73ffffffffffffffffffffffffffffffffffffffff1673ffffffffffffffffffffffffffffffffffffffff1681526020018b73ffffffffffffffffffffffffffffffffffffffff1673ffffffffffffffffffffffffffffffffffffffff1681526020018a63ffffffff1663ffffffff16815260200180602001806020018963ffffffff1663ffffffff1681526020018863ffffffff1663ffffffff168152602001806020018763ffffffff1663ffffffff1681526020018663ffffffff1663ffffffff1681526020018515151515815260200184810384528c818151815260200191508051906020019080838360005b838110156101f15780820151818401526020810190506101d6565b50505050905090810190601f16801561021e5780820380516001836020036101000a031916815260200191505b5084810383528b818151815260200191508051906020019080838360005b8381101561025757808201518184015260208101905061023c565b50505050905090810190601f1680156102845780820380516001836020036101000a031916815260200191505b50848103825288818151815260200191508051906020019080838360005b838110156102bd5780820151818401526020810190506102a2565b50505050905090810190601f1680156102ea5780820380516001836020036101000a031916815260200191505b509f5050505050505050505050505050505060405180910390f35b34801561031157600080fd5b5061031a610b8b565b6040518080602001828103825283818151815260200191508051906020019060200280838360005b8381101561035d578082015181840152602081019050610342565b505050509050019250505060405180910390f35b34801561037d57600080fd5b506103a2600480360381019080803563ffffffff169060200190929190505050610c4c565b6040518080602001828103825283818151815260200191508051906020019060200280838360005b838110156103e55780820151818401526020810190506103ca565b505050509050019250505060405180910390f35b34801561040557600080fd5b5061044a600480360381019080803563ffffffff169060200190929190803573ffffffffffffffffffffffffffffffffffffffff169060200190929190505050610cef565b005b34801561045857600080fd5b50610529600480360381019080803573ffffffffffffffffffffffffffffffffffffffff169060200190929190803590602001908201803590602001908080601f0160208091040260200160405190810160405280939291908181526020018383808284378201915050505050509192919290803590602001908201803590602001908080601f0160208091040260200160405190810160405280939291908181526020018383808284378201915050505050509192919290803563ffffffff169060200190929190505050610f6f565b005b34801561053757600080fd5b506105406110fa565b6040518080602001828103825283818151815260200191508051906020019060200280838360005b83811015610583578082015181840152602081019050610568565b505050509050019250505060405180910390f35b3480156105a357600080fd5b5061060e600480360381019080803563ffffffff169060200190929190803590602001908201803590602001908080601f01602080910402602001604051908101604052809392919081815260200183838082843782019150505050505091929192905050506111bb565b005b34801561061c57600080fd5b50610799600480360381019080803563ffffffff169060200190929190803590602001908201803590602001908080601f0160208091040260200160405190810160405280939291908181526020018383808284378201915050505050509192919290803590602001908201803590602001908080601f0160208091040260200160405190810160405280939291908181526020018383808284378201915050505050509192919290803563ffffffff169060200190929190803563ffffffff169060200190929190803590602001908201803590602001908080601f0160208091040260200160405190810160405280939291908181526020018383808284378201915050505050509192919290803563ffffffff169060200190929190803563ffffffff169060200190929190803590602001908201803590602001908080601f016020809104026020016040519081016040528093929190818152602001838380828437820191505050505050919291929050505061130b565b005b3480156107a757600080fd5b506107cc600480360381019080803563ffffffff1690602001909291905050506117c4565b604051808563ffffffff1663ffffffff1681526020018463ffffffff1663ffffffff16815260200180602001838152602001828103825284818151815260200191508051906020019080838360005b8381101561083657808201518184015260208101905061081b565b50505050905090810190601f1680156108635780820380516001836020036101000a031916815260200191505b509550505050505060405180910390f35b6000806000806060806000806060600080600080600360008f63ffffffff1663ffffffff16815260200190815260200160002090508060000160009054906101000a900463ffffffff168160000160049054906101000a900473ffffffffffffffffffffffffffffffffffffffff168260010160009054906101000a900473ffffffffffffffffffffffffffffffffffffffff168360010160149054906101000a900463ffffffff1684600201856003018660040160009054906101000a900463ffffffff168760040160049054906101000a900463ffffffff16886005018960060160009054906101000a900463ffffffff168a60060160049054906101000a900463ffffffff168b60060160089054906101000a900460ff16878054600181600116156101000203166002900480601f016020809104026020016040519081016040528092919081815260200182805460018160011615610100020316600290048015610a245780601f106109f957610100808354040283529160200191610a24565b820191906000526020600020905b815481529060010190602001808311610a0757829003601f168201915b50505050509750868054600181600116156101000203166002900480601f016020809104026020016040519081016040528092919081815260200182805460018160011615610100020316600290048015610ac05780601f10610a9557610100808354040283529160200191610ac0565b820191906000526020600020905b815481529060010190602001808311610aa357829003601f168201915b50505050509650838054600181600116156101000203166002900480601f016020809104026020016040519081016040528092919081815260200182805460018160011615610100020316600290048015610b5c5780601f10610b3157610100808354040283529160200191610b5c565b820191906000526020600020905b815481529060010190602001808311610b3f57829003601f168201915b505050505093509c509c509c509c509c509c509c509c509c509c509c509c505091939597999b5091939597999b565b6060600260003373ffffffffffffffffffffffffffffffffffffffff1673ffffffffffffffffffffffffffffffffffffffff168152602001908152602001600020805480602002602001604051908101604052809291908181526020018280548015610c4257602002820191906000526020600020906000905b82829054906101000a900463ffffffff1663ffffffff1681526020019060040190602082600301049283019260010382029150808411610c055790505b5050505050905090565b6060600460008363ffffffff1663ffffffff168152602001908152602001600020805480602002602001604051908101604052809291908181526020018280548015610ce357602002820191906000526020600020906000905b82829054906101000a900463ffffffff1663ffffffff1681526020019060040190602082600301049283019260010382029150808411610ca65790505b50505050509050919050565b600360008363ffffffff1663ffffffff16815260200190815260200160002060000160049054906101000a900473ffffffffffffffffffffffffffffffffffffffff1673ffffffffffffffffffffffffffffffffffffffff163373ffffffffffffffffffffffffffffffffffffffff16141515610d6b57600080fd5b80600360008463ffffffff1663ffffffff16815260200190815260200160002060010160006101000a81548173ffffffffffffffffffffffffffffffffffffffff021916908373ffffffffffffffffffffffffffffffffffffffff1602179055506001600360008463ffffffff1663ffffffff16815260200190815260200160002060060160086101000a81548160ff021916908315150217905550600260008273ffffffffffffffffffffffffffffffffffffffff1673ffffffffffffffffffffffffffffffffffffffff16815260200190815260200160002082908060018154018082558091505090600182039060005260206000209060089182820401919006600402909192909190916101000a81548163ffffffff021916908363ffffffff16021790555050610ed4826040805190810160405280601c81526020017f546865206f776e657220617070726f766564207468652072656e742e000000008152506111bb565b7f08fa743480214f8dd1de99b3c6f71db0b629870313f722b432a2e1cb3bcc1bee3382604051808373ffffffffffffffffffffffffffffffffffffffff1673ffffffffffffffffffffffffffffffffffffffff1681526020018273ffffffffffffffffffffffffffffffffffffffff1673ffffffffffffffffffffffffffffffffffffffff1681526020019250505060405180910390a15050565b7fe59a2401fced57af4d17dfb6a9845ac281dbd929a766bcc2a667039fd917046a3385858585604051808673ffffffffffffffffffffffffffffffffffffffff1673ffffffffffffffffffffffffffffffffffffffff1681526020018573ffffffffffffffffffffffffffffffffffffffff1673ffffffffffffffffffffffffffffffffffffffff16815260200180602001806020018463ffffffff1663ffffffff168152602001838103835286818151815260200191508051906020019080838360005b8381101561104f578082015181840152602081019050611034565b50505050905090810190601f16801561107c5780820380516001836020036101000a031916815260200191505b50838103825285818151815260200191508051906020019080838360005b838110156110b557808201518184015260208101905061109a565b50505050905090810190601f1680156110e25780820380516001836020036101000a031916815260200191505b5097505050505050505060405180910390a150505050565b6060600160003373ffffffffffffffffffffffffffffffffffffffff1673ffffffffffffffffffffffffffffffffffffffff1681526020019081526020016000208054806020026020016040519081016040528092919081815260200182805480156111b157602002820191906000526020600020906000905b82829054906101000a900463ffffffff1663ffffffff16815260200190600401906020826003010492830192600103820291508084116111745790505b5050505050905090565b60006111c561190c565b6111cd6118cc565b91506080604051908101604052808363ffffffff1681526020018563ffffffff168152602001848152602001428152509050600460008563ffffffff1663ffffffff16815260200190815260200160002082908060018154018082558091505090600182039060005260206000209060089182820401919006600402909192909190916101000a81548163ffffffff021916908363ffffffff1602179055505080600560008463ffffffff1663ffffffff16815260200190815260200160002060008201518160000160006101000a81548163ffffffff021916908363ffffffff16021790555060208201518160000160046101000a81548163ffffffff021916908363ffffffff16021790555060408201518160010190805190602001906112f7929190611941565b506060820151816002015590505050505050565b6000806113166119c1565b61131e61190c565b6113266118cc565b93506113306118cc565b9250610180604051908101604052808563ffffffff1681526020013373ffffffffffffffffffffffffffffffffffffffff168152602001600073ffffffffffffffffffffffffffffffffffffffff1681526020018e63ffffffff1681526020018d81526020018c81526020018b63ffffffff1681526020018a63ffffffff1681526020018981526020018863ffffffff1681526020018763ffffffff1681526020016000151581525091506080604051908101604052808463ffffffff1681526020018563ffffffff168152602001868152602001428152509050600160003373ffffffffffffffffffffffffffffffffffffffff1673ffffffffffffffffffffffffffffffffffffffff16815260200190815260200160002084908060018154018082558091505090600182039060005260206000209060089182820401919006600402909192909190916101000a81548163ffffffff021916908363ffffffff16021790555050600460008563ffffffff1663ffffffff16815260200190815260200160002083908060018154018082558091505090600182039060005260206000209060089182820401919006600402909192909190916101000a81548163ffffffff021916908363ffffffff1602179055505081600360008663ffffffff1663ffffffff16815260200190815260200160002060008201518160000160006101000a81548163ffffffff021916908363ffffffff16021790555060208201518160000160046101000a81548173ffffffffffffffffffffffffffffffffffffffff021916908373ffffffffffffffffffffffffffffffffffffffff16021790555060408201518160010160006101000a81548173ffffffffffffffffffffffffffffffffffffffff021916908373ffffffffffffffffffffffffffffffffffffffff16021790555060608201518160010160146101000a81548163ffffffff021916908363ffffffff160217905550608082015181600201908051906020019061161f929190611941565b5060a082015181600301908051906020019061163c929190611941565b5060c08201518160040160006101000a81548163ffffffff021916908363ffffffff16021790555060e08201518160040160046101000a81548163ffffffff021916908363ffffffff1602179055506101008201518160050190805190602001906116a8929190611941565b506101208201518160060160006101000a81548163ffffffff021916908363ffffffff1602179055506101408201518160060160046101000a81548163ffffffff021916908363ffffffff1602179055506101608201518160060160086101000a81548160ff02191690831515021790555090505080600560008563ffffffff1663ffffffff16815260200190815260200160002060008201518160000160006101000a81548163ffffffff021916908363ffffffff16021790555060208201518160000160046101000a81548163ffffffff021916908363ffffffff16021790555060408201518160010190805190602001906117a7929190611941565b506060820151816002015590505050505050505050505050505050565b6000806060600080600560008763ffffffff1663ffffffff16815260200190815260200160002090508060000160009054906101000a900463ffffffff168160000160049054906101000a900463ffffffff16826001018360020154818054600181600116156101000203166002900480601f0160208091040260200160405190810160405280929190818152602001828054600181600116156101000203166002900480156118b55780601f1061188a576101008083540402835291602001916118b5565b820191906000526020600020905b81548152906001019060200180831161189857829003601f168201915b505050505091509450945094509450509193509193565b600080600081819054906101000a900463ffffffff168092919060010191906101000a81548163ffffffff021916908363ffffffff160217905550905090565b608060405190810160405280600063ffffffff168152602001600063ffffffff16815260200160608152602001600081525090565b828054600181600116156101000203166002900490600052602060002090601f016020900481019282601f1061198257805160ff19168380011785556119b0565b828001600101855582156119b0579182015b828111156119af578251825591602001919060010190611994565b5b5090506119bd9190611a75565b5090565b61018060405190810160405280600063ffffffff168152602001600073ffffffffffffffffffffffffffffffffffffffff168152602001600073ffffffffffffffffffffffffffffffffffffffff168152602001600063ffffffff1681526020016060815260200160608152602001600063ffffffff168152602001600063ffffffff16815260200160608152602001600063ffffffff168152602001600063ffffffff1681526020016000151581525090565b611a9791905b80821115611a93576000816000905550600101611a7b565b5090565b905600a165627a7a723058208353311bf363647c1997b7bf3cc71b9100221d348b3c054c75f171af2a7eb5810029",
  "source": "pragma solidity ^0.4.23;\r\n\r\ncontract Apartment {\r\n    uint32 private counter = 0;\r\n    mapping(address => uint32[]) apartments;\r\n    mapping(address => uint32[]) rentedApartments;\r\n    mapping(uint32 => ApartmentDetails) apartmentDetails;\r\n    mapping(uint32 => uint32[]) apartmentTransactionMappings;\r\n    mapping(uint32 => ApartmentTransaction) apartmentTransactions;\r\n\r\n    constructor() public {\r\n    }\r\n\r\n    struct ApartmentTransaction {\r\n        uint32 id;\r\n        uint32 apartmentId;\r\n        string message;\r\n        uint timestamp;\r\n    }\r\n\r\n    struct ApartmentDetails {\r\n        uint32 id;\r\n        address owner;\r\n        address tenant;\r\n        uint32 postCode;\r\n        string city;\r\n        string street;\r\n        uint32 houseNumber;\r\n        uint32 floor;\r\n        string description;\r\n        uint32 rent;\r\n        uint32 deposit;\r\n        bool isRented;\r\n    }\r\n\r\n    event PaymentApproved(\r\n        address from,\r\n        address to\r\n    );\r\n\r\n    event PaymentReceived(\r\n        address from,\r\n        address to,\r\n        string username,\r\n        string paymentType,\r\n        uint32 value\r\n    );\r\n\r\n    function getId() private returns(uint32) {\r\n        return counter++;\r\n    }\r\n\r\n    function createApartment(\r\n        uint32 _postCode, string _city, string _street,\r\n        uint32 _houseNumber, uint32 _floor, string _description, uint32 _rent,\r\n        uint32 _deposit, string _transactionMessage) public {\r\n        uint32 apartmentId = getId();\r\n        uint32 transactionId = getId();\r\n        ApartmentDetails memory apartment = ApartmentDetails(\r\n            apartmentId, msg.sender, address(0),\r\n            _postCode, _city, _street, _houseNumber, _floor, _description, _rent, _deposit, false);\r\n        ApartmentTransaction memory transaction = ApartmentTransaction(transactionId, apartmentId, _transactionMessage, now);\r\n\r\n        apartments[msg.sender].push(apartmentId);\r\n        apartmentTransactionMappings[apartmentId].push(transactionId);\r\n        apartmentDetails[apartmentId] = apartment;\r\n        apartmentTransactions[transactionId] = transaction;\r\n    }\r\n\r\n    function updateApartment(uint32 _apartmentId, address _tenant) public {\r\n        require(msg.sender == apartmentDetails[_apartmentId].owner);\r\n        apartmentDetails[_apartmentId].tenant = _tenant;\r\n        apartmentDetails[_apartmentId].isRented = true;\r\n        rentedApartments[_tenant].push(_apartmentId);\r\n        createTransaction(_apartmentId, \"The owner approved the rent.\");\r\n        emit PaymentApproved(msg.sender, _tenant);\r\n    }\r\n\r\n    function createTransaction(uint32 _apartmentId, string _transactionMessage) public {\r\n        uint32 transactionId = getId();\r\n        ApartmentTransaction memory transaction = ApartmentTransaction(transactionId, _apartmentId, _transactionMessage, now);\r\n        apartmentTransactionMappings[_apartmentId].push(transactionId);\r\n        apartmentTransactions[transactionId] = transaction;\r\n    }\r\n\r\n    function getRentedApartments() public view returns(uint32[]) {\r\n        return rentedApartments[msg.sender];\r\n    }\r\n\r\n    function getApartments() public view returns(uint32[]) {\r\n        return apartments[msg.sender];\r\n    }\r\n    \r\n    function getTransactionIds(uint32 apartmentId) public view returns(uint32[]) {\r\n        return apartmentTransactionMappings[apartmentId];\r\n    }\r\n\r\n    function getTransactionById(uint32 transactionId) public view returns(uint32 _id, uint32 _apartmentId, string _message, uint _timestamp) {\r\n        ApartmentTransaction storage t = apartmentTransactions[transactionId];\r\n        return (t.id, t.apartmentId, t.message, t.timestamp);\r\n    }\r\n\r\n    function getApartmentById(uint32 apartmentId) public view returns(uint32 _id, address _owner, address _tenant,\r\n        uint32 _postCode, string _city, string _street,\r\n        uint32 _houseNumber, uint32 _floor, string _description, uint32 _rent, uint32 _deposit, bool _isRented) {\r\n        ApartmentDetails storage a = apartmentDetails[apartmentId];\r\n        return (a.id, a.owner, a.tenant, a.postCode, a.city, a.street, a.houseNumber, a.floor, a.description, a.rent, a.deposit, a.isRented);\r\n    }\r\n\r\n    function firePayment(address _to, string _username, string _paymentType, uint32 _value) public {\r\n        emit PaymentReceived(msg.sender, _to, _username, _paymentType, _value);\r\n    }\r\n}",
  "sourcePath": "C:\\Users\\david.munkacsi\\smart-renting\\ethereum\\contracts\\Apartment.sol",
  "compiler": {
    "name": "solc",
    "version": "0.4.24+commit.e67f0147.Emscripten.clang"
  },
  "schemaVersion": "2.0.0",
  "updatedAt": "2018-07-03T18:29:42.520Z"
}