{
  "contractName": "User",
  "abi": [
    {
      "constant": false,
      "inputs": [
        {
          "name": "_password",
          "type": "bytes"
        }
      ],
      "name": "createUserPassword",
      "outputs": [
        {
          "name": "",
          "type": "bool"
        }
      ],
      "payable": false,
      "stateMutability": "nonpayable",
      "type": "function"
    },
    {
      "constant": true,
      "inputs": [
        {
          "name": "_password",
          "type": "bytes32"
        }
      ],
      "name": "authenticate",
      "outputs": [
        {
          "name": "",
          "type": "bool"
        }
      ],
      "payable": false,
      "stateMutability": "view",
      "type": "function"
    }
  ],
  "bytecode": "0x608060405234801561001057600080fd5b50610266806100206000396000f30060806040526004361061004c576000357c0100000000000000000000000000000000000000000000000000000000900463ffffffff1680635704069e146100515780639eb3c2a31461009a575b600080fd5b34801561005d57600080fd5b50610080600480360381019080803560001916906020019092919050505061011b565b604051808215151515815260200191505060405180910390f35b3480156100a657600080fd5b50610101600480360381019080803590602001908201803590602001908080601f016020809104026020016040519081016040528093929190818152602001838380828437820191505050505050919291929050505061018a565b604051808215151515815260200191505060405180910390f35b6000816040518082600019166000191681526020019150506040518091039020600019166000803373ffffffffffffffffffffffffffffffffffffffff1673ffffffffffffffffffffffffffffffffffffffff1681526020019081526020016000205460001916149050919050565b6000816040518082805190602001908083835b6020831015156101c2578051825260208201915060208101905060208303925061019d565b6001836020036101000a03801982511681845116808217855250505050505090500191505060405180910390206000803373ffffffffffffffffffffffffffffffffffffffff1673ffffffffffffffffffffffffffffffffffffffff16815260200190815260200160002081600019169055509190505600a165627a7a72305820ca95a665c1126ddd66205a8d4953a889e7e4df29e9314a6b2b1b9d9d8d366e950029",
  "source": "pragma solidity ^0.4.23;\r\n\r\ncontract User {\r\n    mapping (address => bytes32) userPasswords;\r\n\r\n    function createUserPassword(bytes _password) public returns (bool) {\r\n        userPasswords[msg.sender] = keccak256(_password);\r\n    }\r\n\r\n    function authenticate(bytes32 _password) public view returns (bool) {\r\n        return userPasswords[msg.sender] == keccak256(_password);\r\n    }\r\n}",
  "sourcePath": "C:\\Users\\david.munkacsi\\smart-renting\\ethereum\\contracts\\User.sol",
  "compiler": {
    "name": "solc",
    "version": "0.4.24+commit.e67f0147.Emscripten.clang"
  },
  "schemaVersion": "2.0.0",
  "updatedAt": "2018-07-01T13:40:34.698Z"
}