{
  "contractName": "User",
  "abi": [
    {
      "anonymous": false,
      "inputs": [
        {
          "indexed": false,
          "name": "from",
          "type": "address"
        },
        {
          "indexed": false,
          "name": "to",
          "type": "address"
        },
        {
          "indexed": false,
          "name": "username",
          "type": "string"
        }
      ],
      "name": "Handshake",
      "type": "event"
    },
    {
      "constant": false,
      "inputs": [
        {
          "name": "_username",
          "type": "string"
        },
        {
          "name": "_password",
          "type": "string"
        }
      ],
      "name": "createUser",
      "outputs": [],
      "payable": false,
      "stateMutability": "nonpayable",
      "type": "function"
    },
    {
      "constant": true,
      "inputs": [],
      "name": "isAccountTaken",
      "outputs": [
        {
          "name": "",
          "type": "bool"
        }
      ],
      "payable": false,
      "stateMutability": "view",
      "type": "function"
    },
    {
      "constant": true,
      "inputs": [],
      "name": "getUsername",
      "outputs": [
        {
          "name": "",
          "type": "string"
        }
      ],
      "payable": false,
      "stateMutability": "view",
      "type": "function"
    },
    {
      "constant": true,
      "inputs": [
        {
          "name": "_password",
          "type": "string"
        }
      ],
      "name": "authenticate",
      "outputs": [
        {
          "name": "",
          "type": "bool"
        }
      ],
      "payable": false,
      "stateMutability": "view",
      "type": "function"
    },
    {
      "constant": false,
      "inputs": [
        {
          "name": "_to",
          "type": "address"
        },
        {
          "name": "_username",
          "type": "string"
        }
      ],
      "name": "handshake",
      "outputs": [],
      "payable": false,
      "stateMutability": "nonpayable",
      "type": "function"
    }
  ],
  "bytecode": "0x608060405234801561001057600080fd5b50610803806100206000396000f30060806040526004361061006d576000357c0100000000000000000000000000000000000000000000000000000000900463ffffffff168063681f3e6d146100725780636b18853e1461010257806387b162b514610131578063aa613b29146101e0578063d249f80514610261575b600080fd5b34801561007e57600080fd5b506100876102ea565b6040518080602001828103825283818151815260200191508051906020019080838360005b838110156100c75780820151818401526020810190506100ac565b50505050905090810190601f1680156100f45780820380516001836020036101000a031916815260200191505b509250505060405180910390f35b34801561010e57600080fd5b506101176103c9565b604051808215151515815260200191505060405180910390f35b34801561013d57600080fd5b506101de600480360381019080803590602001908201803590602001908080601f0160208091040260200160405190810160405280939291908181526020018383808284378201915050505050509192919290803590602001908201803590602001908080601f016020809104026020016040519081016040528093929190818152602001838380828437820191505050505050919291929050505061041c565b005b3480156101ec57600080fd5b50610247600480360381019080803590602001908201803590602001908080601f0160208091040260200160405190810160405280939291908181526020018383808284378201915050505050509192919290505050610575565b604051808215151515815260200191505060405180910390f35b34801561026d57600080fd5b506102e8600480360381019080803573ffffffffffffffffffffffffffffffffffffffff169060200190929190803590602001908201803590602001908080601f016020809104026020016040519081016040528093929190818152602001838380828437820191505050505050919291929050505061062a565b005b6060600260003373ffffffffffffffffffffffffffffffffffffffff1673ffffffffffffffffffffffffffffffffffffffff1681526020019081526020016000208054600181600116156101000203166002900480601f0160208091040260200160405190810160405280929190818152602001828054600181600116156101000203166002900480156103bf5780601f10610394576101008083540402835291602001916103bf565b820191906000526020600020905b8154815290600101906020018083116103a257829003601f168201915b5050505050905090565b60008060003373ffffffffffffffffffffffffffffffffffffffff1673ffffffffffffffffffffffffffffffffffffffff16815260200190815260200160002060009054906101000a900460ff16905090565b60016000803373ffffffffffffffffffffffffffffffffffffffff1673ffffffffffffffffffffffffffffffffffffffff16815260200190815260200160002060006101000a81548160ff02191690831515021790555081600260003373ffffffffffffffffffffffffffffffffffffffff1673ffffffffffffffffffffffffffffffffffffffff16815260200190815260200160002090805190602001906104c6929190610732565b50806040518082805190602001908083835b6020831015156104fd57805182526020820191506020810190506020830392506104d8565b6001836020036101000a0380198251168184511680821785525050505050509050019150506040518091039020600160003373ffffffffffffffffffffffffffffffffffffffff1673ffffffffffffffffffffffffffffffffffffffff16815260200190815260200160002081600019169055505050565b6000816040518082805190602001908083835b6020831015156105ad5780518252602082019150602081019050602083039250610588565b6001836020036101000a038019825116818451168082178552505050505050905001915050604051809103902060001916600160003373ffffffffffffffffffffffffffffffffffffffff1673ffffffffffffffffffffffffffffffffffffffff1681526020019081526020016000205460001916149050919050565b7f150fa45bdb6a43155eec9e1941ecd02759290f9b7dcfbba20159b32e4ab3112c338383604051808473ffffffffffffffffffffffffffffffffffffffff1673ffffffffffffffffffffffffffffffffffffffff1681526020018373ffffffffffffffffffffffffffffffffffffffff1673ffffffffffffffffffffffffffffffffffffffff16815260200180602001828103825283818151815260200191508051906020019080838360005b838110156106f25780820151818401526020810190506106d7565b50505050905090810190601f16801561071f5780820380516001836020036101000a031916815260200191505b5094505050505060405180910390a15050565b828054600181600116156101000203166002900490600052602060002090601f016020900481019282601f1061077357805160ff19168380011785556107a1565b828001600101855582156107a1579182015b828111156107a0578251825591602001919060010190610785565b5b5090506107ae91906107b2565b5090565b6107d491905b808211156107d05760008160009055506001016107b8565b5090565b905600a165627a7a72305820fc552a335f8693cdfce0ed2f06253a1089e2c1d012eb679f7054946b549b404a0029",
  "source": "pragma solidity ^0.4.23;\r\n\r\ncontract User {\r\n    mapping (address => bool) accountTaken;\r\n    mapping (address => bytes32) accountPassword;\r\n    mapping (address => string) accountUsername;\r\n\r\n    event Handshake(\r\n        address from,\r\n        address to,\r\n        string username\r\n    );\r\n\r\n    function createUser(string _username, string _password) public {\r\n        accountTaken[msg.sender] = true;\r\n        accountUsername[msg.sender] = _username;\r\n        accountPassword[msg.sender] = keccak256(_password);\r\n    }\r\n\r\n    function isAccountTaken() public view returns(bool) {\r\n        return accountTaken[msg.sender];\r\n    }\r\n\r\n    function getUsername() public view returns(string) {\r\n        return accountUsername[msg.sender];\r\n    }\r\n\r\n    function authenticate(string _password) public view returns (bool) {\r\n        return accountPassword[msg.sender] == keccak256(_password);\r\n    }\r\n\r\n    function handshake(address _to, string _username) public {\r\n        emit Handshake(msg.sender, _to, _username);\r\n    }\r\n}",
  "sourcePath": "C:\\Users\\david.munkacsi\\smart-renting\\ethereum\\contracts\\User.sol",
  "compiler": {
    "name": "solc",
    "version": "0.4.24+commit.e67f0147.Emscripten.clang"
  },
  "schemaVersion": "2.0.1",
  "updatedAt": "2018-07-02T23:00:51.367Z"
}