{
  "contractName": "User",
  "abi": [
    {
      "constant": false,
      "inputs": [
        {
          "name": "_password",
          "type": "string"
        }
      ],
      "name": "createUserPassword",
      "outputs": [],
      "payable": false,
      "stateMutability": "nonpayable",
      "type": "function"
    },
    {
      "constant": true,
      "inputs": [
        {
          "name": "_password",
          "type": "string"
        }
      ],
      "name": "authenticate",
      "outputs": [
        {
          "name": "",
          "type": "bool"
        }
      ],
      "payable": false,
      "stateMutability": "view",
      "type": "function"
    }
  ],
  "bytecode": "0x608060405234801561001057600080fd5b506102c7806100206000396000f30060806040526004361061004c576000357c0100000000000000000000000000000000000000000000000000000000900463ffffffff1680633649ad8214610051578063aa613b29146100ba575b600080fd5b34801561005d57600080fd5b506100b8600480360381019080803590602001908201803590602001908080601f016020809104026020016040519081016040528093929190818152602001838380828437820191505050505050919291929050505061013b565b005b3480156100c657600080fd5b50610121600480360381019080803590602001908201803590602001908080601f01602080910402602001604051908101604052809392919081815260200183838082843782019150505050505091929192905050506101e7565b604051808215151515815260200191505060405180910390f35b806040518082805190602001908083835b602083101515610171578051825260208201915060208101905060208303925061014c565b6001836020036101000a03801982511681845116808217855250505050505090500191505060405180910390206000803373ffffffffffffffffffffffffffffffffffffffff1673ffffffffffffffffffffffffffffffffffffffff168152602001908152602001600020816000191690555050565b6000816040518082805190602001908083835b60208310151561021f57805182526020820191506020810190506020830392506101fa565b6001836020036101000a0380198251168184511680821785525050505050509050019150506040518091039020600019166000803373ffffffffffffffffffffffffffffffffffffffff1673ffffffffffffffffffffffffffffffffffffffff16815260200190815260200160002054600019161490509190505600a165627a7a7230582064aa3148daeb3b2a8e3585712f7cd188bb6bfae87667a34b856242f9a38ab50d0029",
  "source": "pragma solidity ^0.4.23;\r\n\r\ncontract User {\r\n    mapping (address => bytes32) userPasswords;\r\n\r\n    function createUserPassword(string _password) public {\r\n        userPasswords[msg.sender] = keccak256(_password);\r\n    }\r\n\r\n    function authenticate(string _password) public view returns (bool) {\r\n        return userPasswords[msg.sender] == keccak256(_password);\r\n    }\r\n}",
  "sourcePath": "C:\\Users\\david.munkacsi\\smart-renting\\ethereum\\contracts\\User.sol",
  "compiler": {
    "name": "solc",
    "version": "0.4.24+commit.e67f0147.Emscripten.clang"
  },
  "schemaVersion": "2.0.1",
  "updatedAt": "2018-07-02T11:30:58.051Z"
}