{
  "contractName": "User",
  "abi": [
    {
      "constant": false,
      "inputs": [
        {
          "name": "addresses",
          "type": "address[]"
        }
      ],
      "name": "initializeAccounts",
      "outputs": [],
      "payable": false,
      "stateMutability": "nonpayable",
      "type": "function"
    },
    {
      "constant": true,
      "inputs": [],
      "name": "isAccountAvailable",
      "outputs": [
        {
          "name": "",
          "type": "bool"
        }
      ],
      "payable": false,
      "stateMutability": "view",
      "type": "function"
    },
    {
      "constant": false,
      "inputs": [
        {
          "name": "_username",
          "type": "string"
        },
        {
          "name": "_password",
          "type": "string"
        }
      ],
      "name": "createUser",
      "outputs": [],
      "payable": false,
      "stateMutability": "nonpayable",
      "type": "function"
    },
    {
      "constant": true,
      "inputs": [
        {
          "name": "_password",
          "type": "string"
        }
      ],
      "name": "authenticate",
      "outputs": [
        {
          "name": "",
          "type": "string"
        }
      ],
      "payable": false,
      "stateMutability": "view",
      "type": "function"
    }
  ],
  "bytecode": "0x608060405234801561001057600080fd5b50610730806100206000396000f300608060405260043610610062576000357c0100000000000000000000000000000000000000000000000000000000900463ffffffff16806373892fdc1461006757806387b162b5146100cd578063aa613b291461017c578063e0b7cafd1461025e575b600080fd5b34801561007357600080fd5b506100cb6004803603810190808035906020019082018035906020019080806020026020016040519081016040528093929190818152602001838360200280828437820191505050505050919291929050505061028d565b005b3480156100d957600080fd5b5061017a600480360381019080803590602001908201803590602001908080601f0160208091040260200160405190810160405280939291908181526020018383808284378201915050505050509192919290803590602001908201803590602001908080601f016020809104026020016040519081016040528093929190818152602001838380828437820191505050505050919291929050505061031b565b005b34801561018857600080fd5b506101e3600480360381019080803590602001908201803590602001908080601f0160208091040260200160405190810160405280939291908181526020018383808284378201915050505050509192919290505050610474565b6040518080602001828103825283818151815260200191508051906020019080838360005b83811015610223578082015181840152602081019050610208565b50505050905090810190601f1680156102505780820380516001836020036101000a031916815260200191505b509250505060405180910390f35b34801561026a57600080fd5b5061027361060c565b604051808215151515815260200191505060405180910390f35b60008090505b815181101561031757600160008084848151811015156102af57fe5b9060200190602002015173ffffffffffffffffffffffffffffffffffffffff1673ffffffffffffffffffffffffffffffffffffffff16815260200190815260200160002060006101000a81548160ff0219169083151502179055508080600101915050610293565b5050565b60008060003373ffffffffffffffffffffffffffffffffffffffff1673ffffffffffffffffffffffffffffffffffffffff16815260200190815260200160002060006101000a81548160ff02191690831515021790555081600260003373ffffffffffffffffffffffffffffffffffffffff1673ffffffffffffffffffffffffffffffffffffffff16815260200190815260200160002090805190602001906103c592919061065f565b50806040518082805190602001908083835b6020831015156103fc57805182526020820191506020810190506020830392506103d7565b6001836020036101000a0380198251168184511680821785525050505050509050019150506040518091039020600160003373ffffffffffffffffffffffffffffffffffffffff1673ffffffffffffffffffffffffffffffffffffffff16815260200190815260200160002081600019169055505050565b6060816040518082805190602001908083835b6020831015156104ac5780518252602082019150602081019050602083039250610487565b6001836020036101000a038019825116818451168082178552505050505050905001915050604051809103902060001916600160003373ffffffffffffffffffffffffffffffffffffffff1673ffffffffffffffffffffffffffffffffffffffff168152602001908152602001600020546000191614151561052d57600080fd5b600260003373ffffffffffffffffffffffffffffffffffffffff1673ffffffffffffffffffffffffffffffffffffffff1681526020019081526020016000208054600181600116156101000203166002900480601f0160208091040260200160405190810160405280929190818152602001828054600181600116156101000203166002900480156106005780601f106105d557610100808354040283529160200191610600565b820191906000526020600020905b8154815290600101906020018083116105e357829003601f168201915b50505050509050919050565b60008060003373ffffffffffffffffffffffffffffffffffffffff1673ffffffffffffffffffffffffffffffffffffffff16815260200190815260200160002060009054906101000a900460ff16905090565b828054600181600116156101000203166002900490600052602060002090601f016020900481019282601f106106a057805160ff19168380011785556106ce565b828001600101855582156106ce579182015b828111156106cd5782518255916020019190600101906106b2565b5b5090506106db91906106df565b5090565b61070191905b808211156106fd5760008160009055506001016106e5565b5090565b905600a165627a7a72305820116161c5a88d0d84ed36cf46fc20d351e8f29e0820f2329866a4d1c1fb64b8c40029",
  "source": "pragma solidity ^0.4.23;\r\n\r\ncontract User {\r\n    mapping (address => bool) accountAvailable;\r\n    mapping (address => bytes32) accountPassword;\r\n    mapping (address => string) accountUsername;\r\n\r\n    function initializeAccounts(address[] addresses) public {\r\n        for (uint index = 0; index < addresses.length; index++) {\r\n            accountAvailable[addresses[index]] = true;\r\n        }\r\n    }\r\n\r\n    function isAccountAvailable() public view returns(bool) {\r\n        return accountAvailable[msg.sender];\r\n    }\r\n\r\n    function createUser(string _username, string _password) public {\r\n        accountAvailable[msg.sender] = false;\r\n        accountUsername[msg.sender] = _username;\r\n        accountPassword[msg.sender] = keccak256(_password);\r\n    }\r\n\r\n    function authenticate(string _password) public view returns (string) {\r\n        require(accountPassword[msg.sender] == keccak256(_password)); \r\n        return accountUsername[msg.sender];   \r\n    }\r\n}",
  "sourcePath": "C:\\Users\\david.munkacsi\\smart-renting\\ethereum\\contracts\\User.sol",
  "compiler": {
    "name": "solc",
    "version": "0.4.24+commit.e67f0147.Emscripten.clang"
  },
  "schemaVersion": "2.0.1",
  "updatedAt": "2018-07-02T15:34:41.562Z"
}