{
  "contractName": "Apartment",
  "abi": [
    {
      "constant": true,
      "inputs": [
        {
          "name": "",
          "type": "address"
        }
      ],
      "name": "userInfo",
      "outputs": [
        {
          "name": "firstName",
          "type": "string"
        },
        {
          "name": "lastName",
          "type": "string"
        }
      ],
      "payable": false,
      "stateMutability": "view",
      "type": "function"
    },
    {
      "inputs": [],
      "payable": false,
      "stateMutability": "nonpayable",
      "type": "constructor"
    },
    {
      "constant": false,
      "inputs": [],
      "name": "setIterator",
      "outputs": [],
      "payable": true,
      "stateMutability": "payable",
      "type": "function"
    },
    {
      "constant": true,
      "inputs": [],
      "name": "getApartmentInfo",
      "outputs": [
        {
          "name": "",
          "type": "uint256"
        },
        {
          "name": "",
          "type": "string"
        },
        {
          "name": "",
          "type": "uint256"
        },
        {
          "name": "",
          "type": "uint256"
        }
      ],
      "payable": false,
      "stateMutability": "view",
      "type": "function"
    },
    {
      "constant": true,
      "inputs": [],
      "name": "getNumberOfApartments",
      "outputs": [
        {
          "name": "",
          "type": "uint256"
        }
      ],
      "payable": false,
      "stateMutability": "view",
      "type": "function"
    },
    {
      "constant": false,
      "inputs": [],
      "name": "payRent",
      "outputs": [],
      "payable": true,
      "stateMutability": "payable",
      "type": "function"
    },
    {
      "constant": false,
      "inputs": [],
      "name": "payDeposit",
      "outputs": [],
      "payable": true,
      "stateMutability": "payable",
      "type": "function"
    }
  ],
  "bytecode": "0x608060405234801561001057600080fd5b50600260003373ffffffffffffffffffffffffffffffffffffffff1673ffffffffffffffffffffffffffffffffffffffff16815260200190815260200160002060c0604051908101604052806100736105b6640100000000026401000000009004565b81526020013373ffffffffffffffffffffffffffffffffffffffff168152602001600073ffffffffffffffffffffffffffffffffffffffff1681526020016040805190810160405280600681526020017f4265726c696e000000000000000000000000000000000000000000000000000081525081526020016103208152602001610640815250908060018154018082558091505090600182039060005260206000209060060201600090919290919091506000820151816000015560208201518160010160006101000a81548173ffffffffffffffffffffffffffffffffffffffff021916908373ffffffffffffffffffffffffffffffffffffffff16021790555060408201518160020160006101000a81548173ffffffffffffffffffffffffffffffffffffffff021916908373ffffffffffffffffffffffffffffffffffffffff16021790555060608201518160030190805190602001906101d99291906105cb565b506080820151816004015560a08201518160050155505050600260003373ffffffffffffffffffffffffffffffffffffffff1673ffffffffffffffffffffffffffffffffffffffff16815260200190815260200160002060c0604051908101604052806102536105b6640100000000026401000000009004565b81526020013373ffffffffffffffffffffffffffffffffffffffff168152602001600073ffffffffffffffffffffffffffffffffffffffff1681526020016040805190810160405280600881526020017f4dc3bc6e6368656e00000000000000000000000000000000000000000000000081525081526020016104b08152602001610e10815250908060018154018082558091505090600182039060005260206000209060060201600090919290919091506000820151816000015560208201518160010160006101000a81548173ffffffffffffffffffffffffffffffffffffffff021916908373ffffffffffffffffffffffffffffffffffffffff16021790555060408201518160020160006101000a81548173ffffffffffffffffffffffffffffffffffffffff021916908373ffffffffffffffffffffffffffffffffffffffff16021790555060608201518160030190805190602001906103b99291906105cb565b506080820151816004015560a08201518160050155505050600260003373ffffffffffffffffffffffffffffffffffffffff1673ffffffffffffffffffffffffffffffffffffffff16815260200190815260200160002060c0604051908101604052806104336105b6640100000000026401000000009004565b81526020013373ffffffffffffffffffffffffffffffffffffffff168152602001600073ffffffffffffffffffffffffffffffffffffffff1681526020016040805190810160405280600b81526020017f44c3bc7373656c646f726600000000000000000000000000000000000000000081525081526020016102bc81526020016103e8815250908060018154018082558091505090600182039060005260206000209060060201600090919290919091506000820151816000015560208201518160010160006101000a81548173ffffffffffffffffffffffffffffffffffffffff021916908373ffffffffffffffffffffffffffffffffffffffff16021790555060408201518160020160006101000a81548173ffffffffffffffffffffffffffffffffffffffff021916908373ffffffffffffffffffffffffffffffffffffffff16021790555060608201518160030190805190602001906105999291906105cb565b506080820151816004015560a08201518160050155505050610670565b60008060008154600101919050819055905090565b828054600181600116156101000203166002900490600052602060002090601f016020900481019282601f1061060c57805160ff191683800117855561063a565b8280016001018555821561063a579182015b8281111561063957825182559160200191906001019061061e565b5b509050610647919061064b565b5090565b61066d91905b80821115610669576000816000905550600101610651565b5090565b90565b6108ab8061067f6000396000f300608060405260043610610078576000357c0100000000000000000000000000000000000000000000000000000000900463ffffffff1680631959a0021461007d5780633067f88b146101a55780635c274b861461024a578063a709c4fe14610254578063d6288b9c1461025e578063ed849a5014610289575b600080fd5b34801561008957600080fd5b506100be600480360381019080803573ffffffffffffffffffffffffffffffffffffffff169060200190929190505050610293565b604051808060200180602001838103835285818151815260200191508051906020019080838360005b838110156101025780820151818401526020810190506100e7565b50505050905090810190601f16801561012f5780820380516001836020036101000a031916815260200191505b50838103825284818151815260200191508051906020019080838360005b8381101561016857808201518184015260208101905061014d565b50505050905090810190601f1680156101955780820380516001836020036101000a031916815260200191505b5094505050505060405180910390f35b3480156101b157600080fd5b506101ba6103e7565b6040518085815260200180602001848152602001838152602001828103825285818151815260200191508051906020019080838360005b8381101561020c5780820151818401526020810190506101f1565b50505050905090810190601f1680156102395780820380516001836020036101000a031916815260200191505b509550505050505060405180910390f35b610252610549565b005b61025c610628565b005b34801561026a57600080fd5b50610273610707565b6040518082815260200191505060405180910390f35b610291610751565b005b6001602052806000526040600020600091509050806000018054600181600116156101000203166002900480601f01602080910402602001604051908101604052809291908181526020018280546001816001161561010002031660029004801561033f5780601f106103145761010080835404028352916020019161033f565b820191906000526020600020905b81548152906001019060200180831161032257829003601f168201915b505050505090806001018054600181600116156101000203166002900480601f0160208091040260200160405190810160405280929190818152602001828054600181600116156101000203166002900480156103dd5780601f106103b2576101008083540402835291602001916103dd565b820191906000526020600020905b8154815290600101906020018083116103c057829003601f168201915b5050505050905082565b600060606000806000600260003373ffffffffffffffffffffffffffffffffffffffff1673ffffffffffffffffffffffffffffffffffffffff168152602001908152602001600020600460003373ffffffffffffffffffffffffffffffffffffffff1673ffffffffffffffffffffffffffffffffffffffff1681526020019081526020016000205481548110151561047b57fe5b9060005260206000209060060201905080600001548160030182600401548360050154828054600181600116156101000203166002900480601f0160208091040260200160405190810160405280929190818152602001828054600181600116156101000203166002900480156105335780601f1061050857610100808354040283529160200191610533565b820191906000526020600020905b81548152906001019060200180831161051657829003601f168201915b5050505050925094509450945094505090919293565b6000600360003373ffffffffffffffffffffffffffffffffffffffff1673ffffffffffffffffffffffffffffffffffffffff168152602001908152602001600020600081548110151561059857fe5b906000526020600020906006020190503481600501541415156105ba57600080fd5b8060010160009054906101000a900473ffffffffffffffffffffffffffffffffffffffff1673ffffffffffffffffffffffffffffffffffffffff166108fc349081150290604051600060405180830381858888f19350505050158015610624573d6000803e3d6000fd5b5050565b6000600360003373ffffffffffffffffffffffffffffffffffffffff1673ffffffffffffffffffffffffffffffffffffffff168152602001908152602001600020600081548110151561067757fe5b9060005260206000209060060201905034816004015414151561069957600080fd5b8060010160009054906101000a900473ffffffffffffffffffffffffffffffffffffffff1673ffffffffffffffffffffffffffffffffffffffff166108fc349081150290604051600060405180830381858888f19350505050158015610703573d6000803e3d6000fd5b5050565b6000600260003373ffffffffffffffffffffffffffffffffffffffff1673ffffffffffffffffffffffffffffffffffffffff16815260200190815260200160002080549050905090565b6000600260003373ffffffffffffffffffffffffffffffffffffffff1673ffffffffffffffffffffffffffffffffffffffff16815260200190815260200160002080549050905060018103600460003373ffffffffffffffffffffffffffffffffffffffff1673ffffffffffffffffffffffffffffffffffffffff16815260200190815260200160002054141561082c576000600460003373ffffffffffffffffffffffffffffffffffffffff1673ffffffffffffffffffffffffffffffffffffffff1681526020019081526020016000208190555061087c565b600460003373ffffffffffffffffffffffffffffffffffffffff1673ffffffffffffffffffffffffffffffffffffffff168152602001908152602001600020600081548092919060010191905055505b505600a165627a7a72305820f2f84eacb39bdf38eac673bca8ab4ec7389ab8c161f52cf1cc53455187e24a780029",
  "source": "pragma solidity ^0.4.23;\r\n\r\ncontract Apartment {\r\n    uint counter;\r\n\r\n    mapping(address => UserInfo) public userInfo;\r\n    mapping(address => ApartmentInfo[]) private ownedApartments;\r\n    mapping(address => ApartmentInfo[]) private rentedApartments;\r\n    mapping(address => uint) private iterator;\r\n\r\n    struct UserInfo {\r\n        string firstName;\r\n        string lastName;\r\n    }\r\n\r\n    struct ApartmentInfo {\r\n        uint id;\r\n\r\n        address owner;\r\n        address tenant;\r\n\r\n        string city;\r\n        // string country;\r\n        // string houseNumber;\r\n        // string street;\r\n        // string zip;\r\n\r\n        // bool isRented;\r\n\r\n        uint256 rent;\r\n        uint256 deposit;\r\n    }\r\n\r\n    constructor() public {\r\n        // TODO: Remove mock data.\r\n        ownedApartments[msg.sender].push(ApartmentInfo\r\n        ({\r\n            id: getId(),\r\n            owner: msg.sender,\r\n            tenant: address(0),\r\n            city: \"Berlin\",\r\n            rent: 800,\r\n            deposit: 1600\r\n        }));\r\n        ownedApartments[msg.sender].push(ApartmentInfo\r\n        ({\r\n            id: getId(),\r\n            owner: msg.sender,\r\n            tenant: address(0),\r\n            city: \"München\",\r\n            rent: 1200,\r\n            deposit: 3600\r\n        }));\r\n        ownedApartments[msg.sender].push(ApartmentInfo\r\n        ({\r\n            id: getId(),\r\n            owner: msg.sender,\r\n            tenant: address(0),\r\n            city: \"Düsseldorf\",\r\n            rent: 700,\r\n            deposit: 1000\r\n        }));\r\n    }\r\n\r\n    function getId() private returns (uint) {\r\n        return ++counter;\r\n    }\r\n\r\n    function setIterator() public payable {\r\n        uint _length = ownedApartments[msg.sender].length;\r\n\r\n        if (iterator[msg.sender] == _length - 1) {\r\n            iterator[msg.sender] = 0;\r\n        } else {\r\n            iterator[msg.sender]++;\r\n        }\r\n    }\r\n\r\n    function getApartmentInfo() public view returns (uint, string, uint256, uint256) {\r\n        ApartmentInfo storage _apartment = ownedApartments[msg.sender][iterator[msg.sender]];\r\n        return (_apartment.id, _apartment.city, _apartment.rent, _apartment.deposit);\r\n    }\r\n\r\n    function getNumberOfApartments() public view returns (uint256) {\r\n        return ownedApartments[msg.sender].length;\r\n    }\r\n\r\n    function payRent() public payable {\r\n        // TODO: Mock, use Id later.\r\n        ApartmentInfo storage apartment = rentedApartments[msg.sender][0];\r\n        require(apartment.rent == msg.value);\r\n        apartment.owner.transfer(msg.value);\r\n    }\r\n\r\n    function payDeposit() public payable {\r\n        // TODO: Mock, use Id later.\r\n        ApartmentInfo storage apartment = rentedApartments[msg.sender][0];\r\n        require(apartment.deposit == msg.value);\r\n        apartment.owner.transfer(msg.value);\r\n    }\r\n}",
  "sourcePath": "C:\\Users\\david.munkacsi\\smart-renting\\smart-contracts\\contracts\\Apartment.sol",
  "compiler": {
    "name": "solc",
    "version": "0.4.24+commit.e67f0147.Emscripten.clang"
  },
  "schemaVersion": "2.0.0",
  "updatedAt": "2018-06-14T21:31:13.884Z"
}