{
  "contractName": "Apartment",
  "abi": [
    {
      "constant": true,
      "inputs": [
        {
          "name": "",
          "type": "address"
        }
      ],
      "name": "userInfo",
      "outputs": [
        {
          "name": "firstName",
          "type": "string"
        },
        {
          "name": "lastName",
          "type": "string"
        }
      ],
      "payable": false,
      "stateMutability": "view",
      "type": "function"
    },
    {
      "inputs": [],
      "payable": false,
      "stateMutability": "nonpayable",
      "type": "constructor"
    },
    {
      "constant": true,
      "inputs": [],
      "name": "getApartmentInfo",
      "outputs": [
        {
          "components": [
            {
              "name": "id",
              "type": "uint256"
            },
            {
              "name": "owner",
              "type": "address"
            },
            {
              "name": "tenant",
              "type": "address"
            },
            {
              "name": "city",
              "type": "string"
            },
            {
              "name": "rent",
              "type": "uint256"
            },
            {
              "name": "deposit",
              "type": "uint256"
            }
          ],
          "name": "",
          "type": "tuple[]"
        }
      ],
      "payable": false,
      "stateMutability": "view",
      "type": "function"
    },
    {
      "constant": true,
      "inputs": [],
      "name": "getNumberOfApartments",
      "outputs": [
        {
          "name": "",
          "type": "uint256"
        }
      ],
      "payable": false,
      "stateMutability": "view",
      "type": "function"
    },
    {
      "constant": false,
      "inputs": [],
      "name": "payRent",
      "outputs": [],
      "payable": true,
      "stateMutability": "payable",
      "type": "function"
    },
    {
      "constant": false,
      "inputs": [],
      "name": "payDeposit",
      "outputs": [],
      "payable": true,
      "stateMutability": "payable",
      "type": "function"
    }
  ],
  "bytecode": "0x608060405234801561001057600080fd5b50600260003373ffffffffffffffffffffffffffffffffffffffff1673ffffffffffffffffffffffffffffffffffffffff16815260200190815260200160002060c0604051908101604052806100736105b6640100000000026401000000009004565b81526020013373ffffffffffffffffffffffffffffffffffffffff168152602001600073ffffffffffffffffffffffffffffffffffffffff1681526020016040805190810160405280600681526020017f4265726c696e000000000000000000000000000000000000000000000000000081525081526020016103208152602001610640815250908060018154018082558091505090600182039060005260206000209060060201600090919290919091506000820151816000015560208201518160010160006101000a81548173ffffffffffffffffffffffffffffffffffffffff021916908373ffffffffffffffffffffffffffffffffffffffff16021790555060408201518160020160006101000a81548173ffffffffffffffffffffffffffffffffffffffff021916908373ffffffffffffffffffffffffffffffffffffffff16021790555060608201518160030190805190602001906101d99291906105cb565b506080820151816004015560a08201518160050155505050600260003373ffffffffffffffffffffffffffffffffffffffff1673ffffffffffffffffffffffffffffffffffffffff16815260200190815260200160002060c0604051908101604052806102536105b6640100000000026401000000009004565b81526020013373ffffffffffffffffffffffffffffffffffffffff168152602001600073ffffffffffffffffffffffffffffffffffffffff1681526020016040805190810160405280600881526020017f4dc3bc6e6368656e00000000000000000000000000000000000000000000000081525081526020016104b08152602001610e10815250908060018154018082558091505090600182039060005260206000209060060201600090919290919091506000820151816000015560208201518160010160006101000a81548173ffffffffffffffffffffffffffffffffffffffff021916908373ffffffffffffffffffffffffffffffffffffffff16021790555060408201518160020160006101000a81548173ffffffffffffffffffffffffffffffffffffffff021916908373ffffffffffffffffffffffffffffffffffffffff16021790555060608201518160030190805190602001906103b99291906105cb565b506080820151816004015560a08201518160050155505050600260003373ffffffffffffffffffffffffffffffffffffffff1673ffffffffffffffffffffffffffffffffffffffff16815260200190815260200160002060c0604051908101604052806104336105b6640100000000026401000000009004565b81526020013373ffffffffffffffffffffffffffffffffffffffff168152602001600073ffffffffffffffffffffffffffffffffffffffff1681526020016040805190810160405280600b81526020017f44c3bc7373656c646f726600000000000000000000000000000000000000000081525081526020016102bc81526020016103e8815250908060018154018082558091505090600182039060005260206000209060060201600090919290919091506000820151816000015560208201518160010160006101000a81548173ffffffffffffffffffffffffffffffffffffffff021916908373ffffffffffffffffffffffffffffffffffffffff16021790555060408201518160020160006101000a81548173ffffffffffffffffffffffffffffffffffffffff021916908373ffffffffffffffffffffffffffffffffffffffff16021790555060608201518160030190805190602001906105999291906105cb565b506080820151816004015560a08201518160050155505050610670565b60008060008154600101919050819055905090565b828054600181600116156101000203166002900490600052602060002090601f016020900481019282601f1061060c57805160ff191683800117855561063a565b8280016001018555821561063a579182015b8281111561063957825182559160200191906001019061061e565b5b509050610647919061064b565b5090565b61066d91905b80821115610669576000816000905550600101610651565b5090565b90565b6109738061067f6000396000f30060806040526004361061006d576000357c0100000000000000000000000000000000000000000000000000000000900463ffffffff1680631959a002146100725780633067f88b146100b05780635c274b86146100db578063a709c4fe146100e5578063d6288b9c146100ef575b600080fd5b34801561007e57600080fd5b5061009960048036036100949190810190610693565b61011a565b6040516100a7929190610829565b60405180910390f35b3480156100bc57600080fd5b506100c561026e565b6040516100d29190610807565b60405180910390f35b6100e3610477565b005b6100ed610556565b005b3480156100fb57600080fd5b50610104610635565b6040516101119190610860565b60405180910390f35b6001602052806000526040600020600091509050806000018054600181600116156101000203166002900480601f0160208091040260200160405190810160405280929190818152602001828054600181600116156101000203166002900480156101c65780601f1061019b576101008083540402835291602001916101c6565b820191906000526020600020905b8154815290600101906020018083116101a957829003601f168201915b505050505090806001018054600181600116156101000203166002900480601f0160208091040260200160405190810160405280929190818152602001828054600181600116156101000203166002900480156102645780601f1061023957610100808354040283529160200191610264565b820191906000526020600020905b81548152906001019060200180831161024757829003601f168201915b5050505050905082565b6060600260003373ffffffffffffffffffffffffffffffffffffffff1673ffffffffffffffffffffffffffffffffffffffff168152602001908152602001600020805480602002602001604051908101604052809291908181526020016000905b8282101561046e578382906000526020600020906006020160c06040519081016040529081600082015481526020016001820160009054906101000a900473ffffffffffffffffffffffffffffffffffffffff1673ffffffffffffffffffffffffffffffffffffffff1673ffffffffffffffffffffffffffffffffffffffff1681526020016002820160009054906101000a900473ffffffffffffffffffffffffffffffffffffffff1673ffffffffffffffffffffffffffffffffffffffff1673ffffffffffffffffffffffffffffffffffffffff168152602001600382018054600181600116156101000203166002900480601f0160208091040260200160405190810160405280929190818152602001828054600181600116156101000203166002900480156104425780601f1061041757610100808354040283529160200191610442565b820191906000526020600020905b81548152906001019060200180831161042557829003601f168201915b5050505050815260200160048201548152602001600582015481525050815260200190600101906102cf565b50505050905090565b6000600360003373ffffffffffffffffffffffffffffffffffffffff1673ffffffffffffffffffffffffffffffffffffffff16815260200190815260200160002060008154811015156104c657fe5b906000526020600020906006020190503481600501541415156104e857600080fd5b8060010160009054906101000a900473ffffffffffffffffffffffffffffffffffffffff1673ffffffffffffffffffffffffffffffffffffffff166108fc349081150290604051600060405180830381858888f19350505050158015610552573d6000803e3d6000fd5b5050565b6000600360003373ffffffffffffffffffffffffffffffffffffffff1673ffffffffffffffffffffffffffffffffffffffff16815260200190815260200160002060008154811015156105a557fe5b906000526020600020906006020190503481600401541415156105c757600080fd5b8060010160009054906101000a900473ffffffffffffffffffffffffffffffffffffffff1673ffffffffffffffffffffffffffffffffffffffff166108fc349081150290604051600060405180830381858888f19350505050158015610631573d6000803e3d6000fd5b5050565b6000600260003373ffffffffffffffffffffffffffffffffffffffff1673ffffffffffffffffffffffffffffffffffffffff16815260200190815260200160002080549050905090565b600061068b82356108d5565b905092915050565b6000602082840312156106a557600080fd5b60006106b38482850161067f565b91505092915050565b6106c5816108ab565b82525050565b60006106d682610888565b808452602084019350836020820285016106ef8561087b565b60005b8481101561072857838303885261070a83835161076f565b92506107158261089e565b91506020880197506001810190506106f2565b508196508694505050505092915050565b600061074482610893565b8084526107588160208601602086016108f5565b61076181610928565b602085010191505092915050565b600060c08301600083015161078760008601826107f8565b50602083015161079a60208601826106bc565b5060408301516107ad60408601826106bc565b50606083015184820360608601526107c58282610739565b91505060808301516107da60808601826107f8565b5060a08301516107ed60a08601826107f8565b508091505092915050565b610801816108cb565b82525050565b6000602082019050818103600083015261082181846106cb565b905092915050565b600060408201905081810360008301526108438185610739565b905081810360208301526108578184610739565b90509392505050565b600060208201905061087560008301846107f8565b92915050565b6000602082019050919050565b600081519050919050565b600081519050919050565b6000602082019050919050565b600073ffffffffffffffffffffffffffffffffffffffff82169050919050565b6000819050919050565b600073ffffffffffffffffffffffffffffffffffffffff82169050919050565b60005b838110156109135780820151818401526020810190506108f8565b83811115610922576000848401525b50505050565b6000601f19601f83011690509190505600a265627a7a723058209b0b1bdfd1167d72d098dc90a36ed51f5a873a56b1d225a7d3889874b21bf5ba6c6578706572696d656e74616cf50037",
  "source": "pragma experimental ABIEncoderV2;\r\n\r\ncontract Apartment {\r\n    uint counter;\r\n\r\n    mapping(address => UserInfo) public userInfo;\r\n    mapping(address => ApartmentInfo[]) private ownedApartments;\r\n    mapping(address => ApartmentInfo[]) private rentedApartments;\r\n\r\n    struct UserInfo {\r\n        string firstName;\r\n        string lastName;\r\n    }\r\n\r\n    struct ApartmentInfo {\r\n        uint id;\r\n\r\n        address owner;\r\n        address tenant;\r\n\r\n        string city;\r\n        // string country;\r\n        // string houseNumber;\r\n        // string street;\r\n        // string zip;\r\n\r\n        // bool isRented;\r\n\r\n        uint256 rent;\r\n        uint256 deposit;\r\n    }\r\n\r\n    constructor() public {\r\n        // TODO: Remove mock data.\r\n        ownedApartments[msg.sender].push(ApartmentInfo\r\n        ({\r\n            id: getId(),\r\n            owner: msg.sender,\r\n            tenant: address(0),\r\n            city: \"Berlin\",\r\n            rent: 800,\r\n            deposit: 1600\r\n        }));\r\n        ownedApartments[msg.sender].push(ApartmentInfo\r\n        ({\r\n            id: getId(),\r\n            owner: msg.sender,\r\n            tenant: address(0),\r\n            city: \"München\",\r\n            rent: 1200,\r\n            deposit: 3600\r\n        }));\r\n        ownedApartments[msg.sender].push(ApartmentInfo\r\n        ({\r\n            id: getId(),\r\n            owner: msg.sender,\r\n            tenant: address(0),\r\n            city: \"Düsseldorf\",\r\n            rent: 700,\r\n            deposit: 1000\r\n        }));\r\n    }\r\n\r\n    function getId() private returns (uint) {\r\n        return ++counter;\r\n    }\r\n\r\n    function getApartmentInfo() public view returns (ApartmentInfo[]) {\r\n        // TODO: Mock, use Id later.\r\n        return ownedApartments[msg.sender];\r\n    }\r\n\r\n    function getNumberOfApartments() public view returns (uint256) {\r\n        return ownedApartments[msg.sender].length;\r\n    }\r\n\r\n    function payRent() public payable {\r\n        // TODO: Mock, use Id later.\r\n        ApartmentInfo storage apartment = rentedApartments[msg.sender][0];\r\n        require(apartment.rent == msg.value);\r\n        apartment.owner.transfer(msg.value);\r\n    }\r\n\r\n    function payDeposit() public payable {\r\n        // TODO: Mock, use Id later.\r\n        ApartmentInfo storage apartment = rentedApartments[msg.sender][0];\r\n        require(apartment.deposit == msg.value);\r\n        apartment.owner.transfer(msg.value);\r\n    }\r\n}",
  "sourcePath": "C:\\Users\\david.munkacsi\\smart-renting\\smart-contracts\\contracts\\Apartment.sol",
  "compiler": {
    "name": "solc",
    "version": "0.4.24+commit.e67f0147.Emscripten.clang"
  },
  "schemaVersion": "2.0.0",
  "updatedAt": "2018-06-14T20:24:48.375Z"
}