{
  "contractName": "User",
  "abi": [
    {
      "anonymous": false,
      "inputs": [
        {
          "indexed": false,
          "name": "",
          "type": "string"
        },
        {
          "indexed": false,
          "name": "",
          "type": "bytes32"
        }
      ],
      "name": "Log",
      "type": "event"
    },
    {
      "constant": true,
      "inputs": [
        {
          "name": "user",
          "type": "address"
        }
      ],
      "name": "getBalance",
      "outputs": [
        {
          "name": "",
          "type": "uint256"
        }
      ],
      "payable": false,
      "stateMutability": "view",
      "type": "function"
    },
    {
      "constant": false,
      "inputs": [
        {
          "name": "password",
          "type": "string"
        }
      ],
      "name": "createUserPasswordMapping",
      "outputs": [
        {
          "name": "",
          "type": "bool"
        }
      ],
      "payable": false,
      "stateMutability": "nonpayable",
      "type": "function"
    },
    {
      "constant": true,
      "inputs": [
        {
          "name": "password",
          "type": "string"
        }
      ],
      "name": "authenticate",
      "outputs": [
        {
          "name": "",
          "type": "bool"
        }
      ],
      "payable": false,
      "stateMutability": "view",
      "type": "function"
    }
  ],
  "bytecode": "0x608060405234801561001057600080fd5b50610460806100206000396000f300608060405260043610610057576000357c0100000000000000000000000000000000000000000000000000000000900463ffffffff168063aa613b291461005c578063baafcc35146100dd578063f8b2cb4f1461015e575b600080fd5b34801561006857600080fd5b506100c3600480360381019080803590602001908201803590602001908080601f01602080910402602001604051908101604052809392919081815260200183838082843782019150505050505091929192905050506101b5565b604051808215151515815260200191505060405180910390f35b3480156100e957600080fd5b50610144600480360381019080803590602001908201803590602001908080601f01602080910402602001604051908101604052809392919081815260200183838082843782019150505050505091929192905050506102e6565b604051808215151515815260200191505060405180910390f35b34801561016a57600080fd5b5061019f600480360381019080803573ffffffffffffffffffffffffffffffffffffffff169060200190929190505050610413565b6040518082815260200191505060405180910390f35b6000806000803373ffffffffffffffffffffffffffffffffffffffff1673ffffffffffffffffffffffffffffffffffffffff1681526020019081526020016000205490507f1d656235b7221145ae45c1f1cecc1ad11d2e87e6a6bfdaceaa0d6c30d6a17ff981604051808060200183600019166000191681526020018281038252600f8152602001807f52657475726e656420686173683a2000000000000000000000000000000000008152506020019250505060405180910390a1826040518082805190602001908083835b6020831015156102a75780518252602082019150602081019050602083039250610282565b6001836020036101000a038019825116818451168082178552505050505050905001915050604051809103902060001916816000191614915050919050565b600080826040518082805190602001908083835b60208310151561031f57805182526020820191506020810190506020830392506102fa565b6001836020036101000a03801982511681845116808217855250505050505090500191505060405180910390209050806000803373ffffffffffffffffffffffffffffffffffffffff1673ffffffffffffffffffffffffffffffffffffffff16815260200190815260200160002081600019169055507f1d656235b7221145ae45c1f1cecc1ad11d2e87e6a6bfdaceaa0d6c30d6a17ff98160405180806020018360001916600019168152602001828103825260118152602001807f5265676973746572656420686173683a200000000000000000000000000000008152506020019250505060405180910390a150919050565b60008173ffffffffffffffffffffffffffffffffffffffff163190509190505600a165627a7a723058209ebd2d82110735215510cd84af5ce803c22006dca9455eae19d934613ca348fb0029",
  "source": "pragma solidity ^0.4.23;\r\n\r\ncontract User {\r\n    mapping (address => bytes32) userPasswordMapping;\r\n\r\n    function getBalance(address user) public view returns (uint256) {\r\n        return user.balance;\r\n    }\r\n\r\n    function createUserPasswordMapping(string password) public returns (bool) {\r\n        bytes32 passwordHash = keccak256(password);\r\n        userPasswordMapping[msg.sender] = passwordHash;\r\n        emit Log(\"Registered hash: \", passwordHash);\r\n    }\r\n\r\n    function authenticate(string password) public view returns (bool) {\r\n        bytes32 storedHash = userPasswordMapping[msg.sender];\r\n        emit Log(\"Returned hash: \", storedHash);\r\n        return storedHash == keccak256(password);\r\n\r\n    }\r\n\r\n    event Log(string, bytes32);\r\n}",
  "sourcePath": "C:\\Users\\david.munkacsi\\smart-renting\\smart-contracts\\contracts\\User.sol",
  "compiler": {
    "name": "solc",
    "version": "0.4.24+commit.e67f0147.Emscripten.clang"
  },
  "schemaVersion": "2.0.0",
  "updatedAt": "2018-06-25T21:35:47.133Z"
}