{
  "contractName": "User",
  "abi": [
    {
      "constant": true,
      "inputs": [
        {
          "name": "user",
          "type": "address"
        }
      ],
      "name": "getBalance",
      "outputs": [
        {
          "name": "",
          "type": "uint256"
        }
      ],
      "payable": false,
      "stateMutability": "view",
      "type": "function"
    },
    {
      "constant": false,
      "inputs": [
        {
          "name": "password",
          "type": "string"
        }
      ],
      "name": "createUserPasswordMapping",
      "outputs": [
        {
          "name": "",
          "type": "bool"
        }
      ],
      "payable": false,
      "stateMutability": "nonpayable",
      "type": "function"
    },
    {
      "constant": true,
      "inputs": [
        {
          "name": "password",
          "type": "string"
        }
      ],
      "name": "authenticate",
      "outputs": [
        {
          "name": "",
          "type": "bool"
        }
      ],
      "payable": false,
      "stateMutability": "view",
      "type": "function"
    }
  ],
  "bytecode": "0x608060405234801561001057600080fd5b50610366806100206000396000f300608060405260043610610057576000357c0100000000000000000000000000000000000000000000000000000000900463ffffffff168063aa613b291461005c578063baafcc35146100dd578063f8b2cb4f1461015e575b600080fd5b34801561006857600080fd5b506100c3600480360381019080803590602001908201803590602001908080601f01602080910402602001604051908101604052809392919081815260200183838082843782019150505050505091929192905050506101b5565b604051808215151515815260200191505060405180910390f35b3480156100e957600080fd5b50610144600480360381019080803590602001908201803590602001908080601f0160208091040260200160405190810160405280939291908181526020018383808284378201915050505050509192919290505050610269565b604051808215151515815260200191505060405180910390f35b34801561016a57600080fd5b5061019f600480360381019080803573ffffffffffffffffffffffffffffffffffffffff169060200190929190505050610319565b6040518082815260200191505060405180910390f35b6000816040518082805190602001908083835b6020831015156101ed57805182526020820191506020810190506020830392506101c8565b6001836020036101000a0380198251168184511680821785525050505050509050019150506040518091039020600019166000803373ffffffffffffffffffffffffffffffffffffffff1673ffffffffffffffffffffffffffffffffffffffff1681526020019081526020016000205460001916149050919050565b6000816040518082805190602001908083835b6020831015156102a1578051825260208201915060208101905060208303925061027c565b6001836020036101000a03801982511681845116808217855250505050505090500191505060405180910390206000803373ffffffffffffffffffffffffffffffffffffffff1673ffffffffffffffffffffffffffffffffffffffff1681526020019081526020016000208160001916905550919050565b60008173ffffffffffffffffffffffffffffffffffffffff163190509190505600a165627a7a7230582000b486520d07bc2cc2ee2e51af34f41f89e19257d49601c3e29757e026d5b82d0029",
  "source": "pragma solidity ^0.4.23;\r\n\r\ncontract User {\r\n    mapping (address => bytes32) userPasswordMapping;\r\n\r\n    function getBalance(address user) public view returns (uint256) {\r\n        return user.balance;\r\n    }\r\n\r\n    function createUserPasswordMapping(string password) public returns (bool) {\r\n        userPasswordMapping[msg.sender] = keccak256(password);\r\n    }\r\n\r\n    function authenticate(string password) public view returns (bool) {\r\n        return userPasswordMapping[msg.sender] == keccak256(password);\r\n    }\r\n}",
  "sourcePath": "C:\\Users\\david.munkacsi\\smart-renting\\smart-contracts\\contracts\\User.sol",
  "compiler": {
    "name": "solc",
    "version": "0.4.24+commit.e67f0147.Emscripten.clang"
  },
  "schemaVersion": "2.0.0",
  "updatedAt": "2018-06-25T21:09:50.380Z"
}