{
  "contractName": "User",
  "abi": [
    {
      "constant": true,
      "inputs": [
        {
          "name": "user",
          "type": "address"
        }
      ],
      "name": "getBalance",
      "outputs": [
        {
          "name": "",
          "type": "uint256"
        }
      ],
      "payable": false,
      "stateMutability": "view",
      "type": "function"
    }
  ],
  "bytecode": "0x608060405234801561001057600080fd5b5060e58061001f6000396000f300608060405260043610603f576000357c0100000000000000000000000000000000000000000000000000000000900463ffffffff168063f8b2cb4f146044575b600080fd5b348015604f57600080fd5b506082600480360381019080803573ffffffffffffffffffffffffffffffffffffffff1690602001909291905050506098565b6040518082815260200191505060405180910390f35b60008173ffffffffffffffffffffffffffffffffffffffff163190509190505600a165627a7a72305820a642143f12d0d4a9179dc488880a3472cd3dcd84f83f2b3871ecd45175ed88f40029",
  "source": "pragma solidity ^0.4.23;\r\n\r\ncontract User {\r\n    function getBalance(address user) public view returns (uint256) {\r\n        return user.balance;\r\n    }\r\n}",
  "sourcePath": "C:\\Users\\david.munkacsi\\smart-renting\\smart-contracts\\contracts\\User.sol",
  "compiler": {
    "name": "solc",
    "version": "0.4.24+commit.e67f0147.Emscripten.clang"
  },
  "schemaVersion": "2.0.0",
  "updatedAt": "2018-06-23T16:18:29.433Z"
}